:100000000C945D030C947A030C947A030C947A0399
:100010000C947A030C947A030C947A030C947A036C
:100020000C947A030C947A030C94AD0C0C94E80CA9
:100030000C947A030C947A030C947A030C947A034C
:100040000C947A030C947A030C947A030C947A033C
:100050000C947A030C947A030C947A030C947A032C
:100060000C947A030C947A030C947A030C947A031C
:100070000C947A030C947A030C947A030C947A030C
:100080000C947A030C947A030C947A030C947A03FC
:100090000C947A030C947A030C947A030C947A03EC
:1000A0000C947A030C947A030C947A03420C3F0C60
:1000B0003C0C390C360C330C300C2D0C2A0C270C54
:1000C000240C210C1E0C1B0C180C150C120C0F0C04
:1000D0000C0C090C060C030C000CFD0BFA0BF70BB7
:1000E000F40BF10BEE0BEB0BE80BE50BE20BDF0B6C
:1000F000DC0BD90BD60BD30BD00BCD0BCA0BC70B1C
:10010000C40BC10BBE0BBB0BB80BB50BB20BAF0BCB
:10011000AC0BA90BA60BA30BA00B9D0B9A0B970B7B
:10012000940B910B8E0B8B0B880B850B820B0001B4
:10013000000062011200020000740143000300008D
:10014000B7010401030904BB011402030904D1012E
:100150001603030904E9010C0001C11201803601F4
:1001600081361201000202000010C0167A0400015C
:100170000102030109024300020100C03209040028
:100180000001020201000524001001052401010103
:10019000042402060524060001070582031000401E
:1001A00009040100020A00000007050302400000E4
:1001B0000705840240000004030904140359006F7A
:1001C000007500720020004E0061006D00650000A7
:1001D00000160355005300420020005300650072D2
:1001E00000690061006C0000000C03310032003334
:1001F000003400350000006E616E00696E6600001C
:100200000000000000005F00000007000700147FEE
:10021000147F14242A7F2A12231308646236495556
:1002200022500005030000001C2241000041221C56
:100230000014083E081408083E080800503000006A
:100240000808080808006060000020100804023E4A
:100250005149453E00427F4000426151494621419B
:10026000454B311814127F1027454545393C4A4902
:10027000493001710905033649494936064949297A
:100280001E003636000000563600000814224100D9
:1002900014141414140041221408020151090632E6
:1002A0004979413E7E1111117E7F494949363E41CF
:1002B0004141227F4141221C7F494949417F09092F
:1002C00009013E4149497A7F0808087F00417F4182
:1002D000002040413F017F081422417F40404040C0
:1002E0007F020C027F7F0408107F3E4141413E7F28
:1002F000090909063E4151215E7F091929464649EF
:1003000049493101017F01013F4040403F1F2040EA
:10031000201F3F4038403F631408146307087008EB
:10032000076151494543007F414100020408102004
:100330000041417F0004020102044040404040006F
:100340000102040020545454787F4844443838440F
:10035000444420384444487F3854545418087E0993
:1003600001020C5252523E7F0804047800447D4042
:10037000002040443D007F1028440000417F4000A1
:100380007C041804787C0804047838444444387C9D
:1003900014141408081414187C7C08040408485425
:1003A000545420043F4440203C4040207C1C2040CA
:1003B000201C3C4030403C44281028440C505050F5
:1003C0003C4464544C44000836410000007F000067
:1003D00000413608001008081008784641467800A9
:1003E0000000000000005F00000007000700147F0D
:1003F000147F14242A7F2A12231308646236495575
:1004000022500005030000001C2241000041221C74
:100410000014083E081408083E0808005030000088
:100420000808080808006060000020100804023E68
:100430005149453E00427F400042615149462141B9
:10044000454B311814127F1027454545393C4A4920
:100450004930017109050336494949360649492998
:100460001E003636000000563600000814224100F7
:100470001414141414004122140802015109063204
:100480004979413E7E1111117E7F494949363E41ED
:100490004141227F4141221C7F494949417F09094D
:1004A00009013E4149497A7F0808087F00417F41A0
:1004B000002040413F017F081422417F40404040DE
:1004C0007F020C027F7F0408107F3E4141413E7F46
:1004D000090909063E4151215E7F0919294646490D
:1004E00049493101017F01013F4040403F1F204009
:1004F000201F3F4038403F6314081463070870080A
:10050000076151494543007F414100020408102022
:100510000041417F0004020102044040404040008D
:100520000102040020545454787F4844443838442D
:10053000444420384444487F3854545418087E09B1
:1005400001020C5252523E7F0804047800447D4060
:10055000002040443D007F1028440000417F4000BF
:100560007C041804787C0804047838444444387CBB
:1005700014141408081414187C7C08040408485443
:10058000545420043F4440203C4040207C1C2040E8
:10059000201C3C4030403C44281028440C50505013
:1005A0003C4464544C44000836410000007F000085
:1005B00000413608001008081008784641467800C7
:1005C000407A10F35A00A0724E18090010A5D4E822
:1005D0000000E87648170000E40B54020000CA9AB5
:1005E0003B000000E1F50500008096980000004007
:1005F000420F000000A0860100000010270000004C
:1006000000E803000000006400000000000A000091
:100610000000000100000000002C76D888DC674F45
:100620000823DFC1DFAE59E1B1B796E5E3E453C675
:100630003AE651997696E8E6C28426EB898C9B626D
:10064000ED407C6FFCEFBC9C9F40F2BAA56FA5F417
:1006500090055A2AF75C936B6CF9676DC11BFCE03F
:10066000E40D47FEF520E6B500D0ED902E03009492
:100670003577050080841E080000204E0A00000027
:10068000C80C333333330F986E12831141EF8D2131
:1006900014893BE65516CFFEE6DB18D1844B381B98
:1006A000F77C1D901DA4BBE424203284725E22815D
:1006B00000C9F124ECA1E53D270011241FBECFEFB6
:1006C000DAE0DEBFCDBF11E0A0E0B1E0E8EEF4E398
:1006D00002C005900D92AC3AB107D9F713E0ACEA2D
:1006E000B1E001C01D92A23CB107E1F70E940109EF
:1006F0000C94721A0C94000090917C008770987F83
:10070000892B80937C0080917A00806480937A00AA
:1007100080917A0086FDFCCF20917800309179009D
:10072000C9010895FC0180E090E0A0E0B0E0808382
:100730009183A283B38384839583A683B78380E068
:1007400090E0A0E8BEE380879187A287B387848783
:100750009587A687B78781E090E0918B808B938BFC
:10076000828B158A148A08951092AD011092AC0103
:1007700081E090E0909327018093260183E090E050
:1007800090932901809328011092B1011092B00139
:100790008091240190912501039781F41092270103
:1007A0001092260184E090E0909329018093280123
:1007B0008EEF9FEF9093B1018093B00108952F9237
:1007C0003F924F925F926F927F928F929F92AF92E1
:1007D000BF92CF92DF92EF92FF920F931F93DF931E
:1007E000CF93CDB7DEB728970FB6F894DEBF0FBE14
:1007F000CDBF98878F837E836D83DC01ED90FD9064
:100800000D911C91A0903C01B0903D01C0903E0123
:10081000D0903F01C601B50120E030E040E851E44E
:100820000E943A159B01AC01C801B7010E94541700
:1008300018160CF041C0C601B50120E030E040E0E0
:1008400051E40E943B159B01AC01C801B7010E9415
:10085000B21588238CF5EF81F885648075808680D9
:100860009780A090C201B090C301C090C401D09005
:10087000C501C601B50120E030E040E851E40E9426
:100880003A159B01AC01C401B3010E94541718161C
:100890009CF4C601B50120E030E040E051E40E9444
:1008A0003B159B01AC01C401B3010E94B215882322
:1008B0001CF421E030E06DC180912401909125016C
:1008C000039709F064C1C801B70120E030E040E8B7
:1008D00051E40E943B1520E030E046EA52E40E94D9
:1008E0005417181664F4EF81F88580859185A285E8
:1008F000B385BF77B05880879187A287B387AF81D0
:10090000B8856D917D918D919C9120E030E040E81B
:100910005FE30E94B21588235CF4EF81F88580853F
:100920009185A285B385BF7780879187A287B3879A
:10093000AF81B88514966D917D918D919C9117979B
:1009400020E030E040E851E40E943B1520E030E038
:100950004CE352E40E945417181664F4EF81F885B2
:1009600084859585A685B785BF77B0588487958798
:10097000A687B787AF81B88514966D917D918D91CB
:100980009C91179720E030E040E351E40E94B215BB
:1009900088235CF4EF81F88584859585A685B785E5
:1009A000BF7784879587A687B787AF81B8852D9055
:1009B0003D904D905C90AD81BE818D919D910D904B
:1009C000BC91A02D89839A83AB83BC83BC01CD01EC
:1009D00020E030E040E851E40E943A159B01AC0170
:1009E000C201B1010E94541718160CF0D0C06981E1
:1009F0007A818B819C8120E030E040E851E40E94C4
:100A00003B159B01AC01C201B1010E94B2158823C4
:100A10000CF0BDC0EF81F885A480B580C680D7807A
:100A2000AD81BE8114966D907D908D909C901797AE
:100A3000C401B30120E030E040E851E40E943A15DF
:100A40009B01AC01C601B5010E94541718160CF0A9
:100A50009EC0C401B30120E030E040E851E40E94B0
:100A60003B159B01AC01C601B5010E94B21588235C
:100A70000CF08DC069817A818B819C81A2019101EA
:100A80000E943A157B018C01E89417F9C401B30167
:100A9000A60195010E943A159B01AC015F77C80140
:100AA000B7010E9454171816C4F5C201B10129817B
:100AB0003A814B815C810E945417EF81F885208533
:100AC000318542855385181694F4DA01C901BF7740
:100AD000EF81F88580879187A287B387ED81FE81BA
:100AE00080859185A285B385BF77B05811C0DA01A2
:100AF000C901BF77B058EF81F88580879187A287B9
:100B0000B387ED81FE8180859185A285B385BF770E
:100B100080879187A287B38725C0C601B501A4014C
:100B200093010E945417AF81B8851C962D913D9179
:100B30004D915C911F971816C4F4DA01C901BF7773
:100B4000EF81F88584879587A687B787ED81FE8139
:100B500084859585A685B785BF77B05884879587A6
:100B6000A687B78722E030E014C0DA01C901BF7759
:100B7000B058EF81F88584879587A687B787ED8180
:100B8000FE8184859585A685B785BF77E7CF20E070
:100B900030E0C90128960FB6F894DEBF0FBECDBF76
:100BA000CF91DF911F910F91FF90EF90DF90CF9049
:100BB000BF90AF909F908F907F906F905F904F907D
:100BC0003F902F9008958FB182958695877080FD14
:100BD00003C020E030E00CC080EA9FE00197F1F70D
:100BE0008FB1829586958770282F30E02170307004
:100BF000C90108958FB1829586958695837080FD91
:100C000003C020E030E00DC080E197E20197F1F7EA
:100C10008FB18295869586958370282F30E021705C
:100C20003070C9010895EF92FF920F931F937B01DB
:100C30008C0120E030E040E050E00E94541718168C
:100C4000DCF0C801B70120E030E040E050E00E9455
:100C5000B215882319F420E030E010C0C801B701B4
:100C600020E030E040E050E00E94B21588231CF400
:100C70002FEF3FEF03C003C021E030E0C9011F9117
:100C80000F91FF90EF9008952F923F924F925F92B5
:100C90006F927F928F929F92AF92BF92CF92DF928C
:100CA000EF92FF920F931F93DF93CF9300D000D06A
:100CB000CDB7DEB79C838B837A8369831A0181E089
:100CC00090E0EB81FC81938B828B958B848B809160
:100CD000240190912501039751F180912401909175
:100CE0002501039721F180E090E0A0E2B1E4848344
:100CF0009583A683B78380E090E0A0E0B0E0808792
:100D00009187A287B3870E946A1864E470E00E940A
:100D1000BB17AA2797FDA095BA2FBC01CD010E9451
:100D20005116EB81FC816083718382839383809170
:100D3000240190912501039709F074C00E946A185C
:100D40006FE170E00E94BB17AA2797FDA095BA2F0C
:100D5000BC01CD010E945116EB81FC816483758337
:100D60008683978320E030E040E351E40E94B2158F
:100D700087FDE4CFEB81FC81E084F184028513855B
:100D80000E946A1862E070E00E94BB17880F991FEA
:100D90000197AA2797FDA095BA2FBC01CD010E940B
:100DA00051169B01AC01C801B7010E945817EB8195
:100DB000FC816087718782879387E484F584068548
:100DC00017850E946A1862E070E00E94BB17880FC6
:100DD000991F0197AA2797FDA095BA2FBC01CD01B5
:100DE0000E9451169B01AC01C801B7010E9458171F
:100DF000EB81FC8164877587868797870E946A18D4
:100E000064E470E00E94BB17AA2797FDA095BA2F53
:100E1000BC01CD010E945116EB81FC81608371837E
:100E20008283938381E0482E512C65C080912401F8
:100E300090912501039789F50E946A1864E470E097
:100E40000E94BB17AA2797FDA095BA2FBC01CD0120
:100E50000E945116EB81FC816083718382839383AE
:100E60000E946A186FE170E00E94BB17AA2797FDE5
:100E7000A095BA2FBC01CD010E945116EB81FC81D7
:100E8000648375838683978320E030E040E351E4F8
:100E90000E94B21587FDE4CF14C00E946A1864E472
:100EA00070E00E94BB17AA2797FDA095BA2FBC013E
:100EB000CD010E945116EB81FC8160837183828396
:100EC0009383FAE04F16510499F480E090E0A8E48F
:100ED000B2ECEB81FC8180839183A283B383848312
:100EE0009583A683B783138A128A158A148A5BC1F5
:100EF0000894411C511CEB81FC81A080B180C28010
:100F0000D380E981FA81E080F18002811381C801F8
:100F1000B70120E030E048EA51E40E943A159B0115
:100F2000AC01C601B5010E94541718160CF048C058
:100F3000C801B70120E030E040E851E40E943B15D1
:100F400020E030E040EA50E40E943B159B01AC01F8
:100F5000C601B5010E94B215882394F5EB81FC818E
:100F60006480758086809780E981FA81E480F580CD
:100F700006811781C801B70120E030E048EA51E45A
:100F80000E943A159B01AC01C401B3010E945417A1
:100F90001816B4F4C801B70120E030E040E851E48D
:100FA0000E943B1520E030E040EA50E40E943B15EF
:100FB0009B01AC01C401B3010E94B21587FDEEC0D4
:100FC000F101E080F18002811381C801B70120E0C6
:100FD00030E048EA51E40E943A159B01AC01C60199
:100FE000B5010E94541718160CF047C0C801B7018C
:100FF00020E030E040E851E40E943B1520E030E082
:1010000040EA50E40E943B159B01AC01C601B501CA
:101010000E94B21588238CF5EB81FC816480758079
:1010200086809780F101E480F58006811781C801F0
:10103000B70120E030E048EA51E40E943A159B01F4
:10104000AC01C401B3010E9454171816B4F4C801CE
:10105000B70120E030E040E851E40E943B1520E079
:1010600030E040EA50E40E943B159B01AC01C40112
:10107000B3010E94B21587FD91C0E0903C01F09051
:101080003D0100913E0110913F01C801B70120E0F0
:1010900030E048EA51E40E943A159B01AC01C601D8
:1010A000B5010E94541718160CF04AC0C801B701C8
:1010B00020E030E040E851E40E943B1520E030E0C1
:1010C00040EA50E40E943B159B01AC01C601B5010A
:1010D0000E94B2158823A4F5EB81FC8164807580A1
:1010E00086809780E090C201F090C3010091C40116
:1010F0001091C501C801B70120E030E048EA51E491
:101100000E943A159B01AC01C401B3010E9454171F
:101110001816B4F4C801B70120E030E040E851E40B
:101120000E943B1520E030E040EA50E40E943B156D
:101130009B01AC01C401B3010E94B21587FD2EC012
:10114000C601B50120E030E040E050E00E94B21559
:1011500087FD24C0C601B50120E030E048EA52E432
:101160000E9454171816D4F0EB81FC81E480F580BE
:1011700006811781C801B70120E030E040E050E06F
:101180000E94B21587FD0AC0C801B70120E030E017
:1011900040E452E40E94541718162CF4FBE04F165A
:1011A000510409F043CEEB81FC81118A108A0F9023
:1011B0000F900F900F90CF91DF911F910F91FF90A3
:1011C000EF90DF90CF90BF90AF909F908F907F90E7
:1011D0006F905F904F903F902F9008958FE30E9403
:1011E000001480B38F7980BB84B18C6084B980E4B3
:1011F00080937C0087E880937A000E94630A789449
:1012000008954F925F926F927F928F929F92AF92CA
:10121000BF92CF92EF92FF920F931F93DF93CF93E2
:10122000CDB7DEB7C556D0400FB6F894DEBF0FBEBF
:10123000CDBF80E88093610081E0809361004E0122
:101240000894811C911CC40140E050E068E272E403
:1012500000E010E020E232E4A8E0EA2EF8E0CF2E31
:10126000ECE2AE2EE1E0BE2E0E94811480E090E020
:10127000A8E2B2E480933C0190933D01A0933E012B
:10128000B0933F0180E090E0A0E2B2E48093C2011D
:101290009093C301A093C401B093C5010E94EE08CE
:1012A00076E1A72EB12CAC0EBD1E68E1462E61E0A2
:1012B000562E5EE1652E51E0752EC82C892C40E536
:1012C000E42E43ECF42E0E94DA1180912A019091D1
:1012D0002B01892BC1F081E168E140E051E00E94DF
:1012E000B61388E168E14CE051E00E94B6130E9419
:1012F000CC130E947C0A8823E1F30E947E0C882391
:10130000C1F30E94BF0A0E94DA110CE610E00CC083
:101310000E947F0A8C018091B2019091B3010196E5
:101320009093B3018093B2010E94A40A882381F7AD
:101330000737110579F46091C2017091C301809162
:10134000C4019091C50120E030E040E050E40E94EB
:101350003A1511C003371105B9F46091C2017091BB
:10136000C3018091C4019091C50120E030E040E0CC
:1013700050E40E943B156093C2017093C3018093B7
:10138000C4019093C5012BC00136110579F4609119
:101390003C0170913D0180913E0190913F0120E020
:1013A00030E040E050E40E943A1511C004361105C7
:1013B000B1F460913C0170913D0180913E019091AA
:1013C0003F0120E030E040E050E40E943B15609394
:1013D0003C0170933D0180933E0190933F010E9438
:1013E000DA1100D000D000D0EDB7FEB73196ADB71E
:1013F000BEB71296BC92AE921197538242828091F0
:10140000B2019091B301958384830E9494198DB7A2
:101410009EB706960FB6F8949EBF0FBE8DBF80E0B4
:1014200060E0A5010E94B6138091B0019091B101D6
:1014300000D000D000D0EDB7FEB73196ADB7BEB743
:101440001296BC92AE9211977382628295838483C6
:101450000E9494198DB79EB706960FB6F8949EBF5A
:101460000FBE8DBF8EE160E0A5010E94B61380E043
:1014700069E044E529E00E94151280913C019091B9
:101480003D01A0913E01B0913F0189839A83AB83D6
:10149000BC838091C2019091C301A091C401B0911D
:1014A000C5018D839E83AF83B8878C2D982D0E94B4
:1014B000A9140E94CC1310922B0110922A01C7018B
:1014C0000197F1F700CF81E08093D70080EA809305
:1014D000D80082E189BD09B400FEFDCF80E9809388
:1014E000D8001092E0001092C6011092C7018CE063
:1014F0008093E200789408958091C60108952FB7F3
:10150000F8948091C601882369F083E08093E90014
:101510009BE68091E80085FD09C082FF03C090939F
:10152000E800F7CF2FBF2FEF3FEF0CC09091F100F5
:101530008091E80085FD03C08BE68093E8002FBF13
:10154000292F30E0C90108952FB7F8948091C60182
:10155000882311F490E010C083E08093E90090911B
:10156000F200992349F48091E80082FF05C085FDCF
:1015700003C08BE68093E8002FBF892F08958091E8
:10158000C601882371F09FB7F89483E08093E90047
:101590002BE602C02093E8008091E80085FDFACF99
:1015A0009FBF0895482F8091C6018823D9F12FB796
:1015B000F89484E08093E9008091C901882341F088
:1015C0008091E80085FD02C02FBF12C01092C901B2
:1015D0009091E400975E34E08091E80085FD13C0AF
:1015E0002FBF8091E400891729F481E08093C9011D
:1015F0008FEF08958091C6018823A1F02FB7F8944A
:101600003093E900E9CF4093F1008091E80085FD37
:1016100003C08AE38093E80085E08093C8012FBF70
:1016200080E008958FEF0895282F8091C6018823C8
:1016300051F09FB7F89484E08093E9008091E8002E
:1016400085FD03C09FBF8FEF08952093F100809127
:10165000E80085FD03C08AE38093E80085E080937D
:10166000C8019FBF80E00895CF93DF93EC01809184
:10167000C601882309F41CC13FB7F89484E0809325
:10168000E9008091C901882309F408C18091E8002C
:1016900085FD02C03FBF0CC11092C901FFC09091EF
:1016A000E400975E8091E80085FD13C03FBF809104
:1016B000E400891721F481E08093C901F9C0809189
:1016C000C601882309F4F4C03FB7F894B093E90049
:1016D000E9CF8091F200242F281B822F90E0681719
:1016E000790708F4262F822F90E08134910508F0C5
:1016F000C6C08A5A9F4FFC01EE0FFF1F0590F49160
:10170000E02D099489918093F10089918093F100F3
:1017100089918093F10089918093F1008991809360
:10172000F10089918093F10089918093F100899172
:101730008093F10089918093F10089918093F10069
:1017400089918093F10089918093F1008991809330
:10175000F10089918093F10089918093F100899142
:101760008093F10089918093F10089918093F10039
:1017700089918093F10089918093F1008991809300
:10178000F10089918093F10089918093F100899112
:101790008093F10089918093F10089918093F10009
:1017A00089918093F10089918093F10089918093D0
:1017B000F10089918093F10089918093F1008991E2
:1017C0008093F10089918093F10089918093F100D9
:1017D00089918093F10089918093F10089918093A0
:1017E000F10089918093F10089918093F1008991B2
:1017F0008093F10089918093F10089918093F100A9
:1018000089918093F10089918093F100899180936F
:10181000F10089918093F10089918093F100899181
:101820008093F10089918093F10089918093F10078
:1018300089918093F10089918093F100899180933F
:10184000F10089918093F10089918093F100899151
:101850008093F10089918093F10089918093F10048
:1018600089918093F10089918093F100899180930F
:10187000F10089918093F10089918093F100899121
:101880008093F1008091E80085FD02C05093E8004C
:10189000621B7109A093C8013FBF04C0B4E040E4DB
:1018A0005AE3A5E06115710509F0F9CE80E001C0A9
:1018B0008FEFDF91CF9108959FB7F8948091C80181
:1018C000882341F084E08093E9008AE38093E80074
:1018D0001092C8019FBF08956091A0017091A1016D
:1018E0008091A2019091A30108958091A40108958F
:1018F0008091A50108958091A60108958091C70166
:101900000895282F9FB7F8948091C601882339F055
:1019100082E08093E9008091E80085FD03C09FBFCD
:101920008FEF089581EA8093F10080E28093F100C7
:101930001092F1001092F1001092F1001092F1005B
:1019400081E08093F1001092F1002093F1008AE38E
:101950008093E8009FBF80E008951F920F920FB61A
:101960000F9211248F939F938091E1001092E100D8
:10197000982F83FF11C01092E90081E08093EB0063
:101980001092EC0082E18093ED0088E08093F000FB
:101990001092C6011092C70192FF13C08091C60138
:1019A000882379F08091C801882359F08150809371
:1019B000C801882331F484E08093E9008AE38093AE
:1019C000E8009F918F910F900FBE0F901F90189578
:1019D0001F920F920FB60F9211240F931F932F9304
:1019E0003F934F935F936F937F938F939F93AF93A7
:1019F000BF93EF93FF931092E9008091E80083FF7B
:101A00003CC14091F1003091F1008091F100682FCC
:101A100070E02091F100922F80E0682B792B80916B
:101A2000F100A82FB0E02091F100922F80E0A82BC8
:101A3000B92B1091F1000091F10082EF8093E80042
:101A4000363009F05AC025E331E0A9014550504035
:101A5000F9013797859194918617970701F5FA0157
:101A6000859194918A179B07D1F49A012E5F3F4F7D
:101A7000F901659174912E5F3F4FF9014491212F37
:101A800030E0902F80E0282B392B2F3F310519F0C3
:101A900010F02FEF30E0241758F4422F09C0295FCF
:101AA0003F4F495F5F4FF1E02F353F0789F6E5C0B3
:101AB0005EEF8091E800282F30E0C90185709070BA
:101AC000892BB9F322FDDCC0342F413108F030E11D
:101AD000232FCB0106C0FC010196E491E093F100B5
:101AE00021502223C1F7630F711D431B5093E8005F
:101AF0004423F9F63031E9F2C3C0353061F48EEF9A
:101B00008093E8008091E80080FFFCCF862F8068FA
:101B10008093E300B5C0393051F5442309F0ADC0DE
:101B20006093C6011092C7011092C8018EEF809396
:101B3000E80088E591E021E02093E900FC010196AE
:101B4000E491E093EB00EE2369F0AC014F5F5F4F4F
:101B5000FC0184918093EC00CA010196FA01349152
:101B60003093ED002F5F253039F78EE181C038309A
:101B700061F4403809F081C08091E80080FFFCCF1B
:101B80008091C6018093F10050C0313289F4413A0E
:101B900009F073C08091E80080FFFCCFE0EAF1E03B
:101BA00081918093F10081E0E73AF807C9F73DC0E1
:101BB0003032A1F4413209F060C08091E80082FF28
:101BC000FCCFE0EAF1E08091F100819381E0E73A17
:101BD000F807C9F78BEF8093E80027C0323251F441
:101BE000413209F04AC06093C7018091E80080FF4C
:101BF000FCCF1BC03323E9F48091E80080FFFCCFC9
:101C0000423811F080E00DC0A093E9008091EB0014
:101C100090E025E0969587952A95E1F781701092DE
:101C2000E9008093F1001092F1008EEF8093E800BC
:101C300027C0313011F0333001F54230F1F4672B19
:101C4000E1F42A2F2F77822F81508430B0F48EEF69
:101C50008093E8002093E900333079F089E18093A4
:101C6000EB0081E090E002C0880F991F2A95E2F70F
:101C70008093EA001092EA0003C081E28093EB00B7
:101C8000FF91EF91BF91AF919F918F917F916F9154
:101C90005F914F913F912F911F910F910F900FBE28
:101CA0000F901F901895A1E1B0E0E9E5FEE00C94DB
:101CB000CE173C017F876E876A01FC01178216826E
:101CC000838181FD03C06FEF7FEF6FC39E012F5FA4
:101CD0003F4F398B288BF3012381EE85FF8523FD50
:101CE000859123FF8191FF87EE87882309F45AC3EA
:101CF000853251F4EE85FF8523FD859123FF819187
:101D0000FF87EE87853229F490E0B3010E946819BD
:101D1000E2CF982F10E0882499241032B0F49B323F
:101D200069F09C3228F4903251F0933271F40BC078
:101D30009D3239F0903349F4116028C0126014606C
:101D400025C0186023C0106121C017FD2AC0892F4B
:101D500080538A3078F416FF06C0FAE09F9E902CDC
:101D60001124980E13C03AE0839E802C1124880E13
:101D700010620CC09E3221F416FD14C3106406C01C
:101D80009C3611F4106802C0983659F4EE85FF8530
:101D900023FD959123FF9191FF87EE87992309F009
:101DA000BCCF892F8554833020F4812F8061905ED1
:101DB00007C0892F8556833008F09FC1812F8F7E01
:101DC00086FD02C076E0972E6FE3F62EF822953658
:101DD00019F4F0E4FF2A07C0963619F420E8F22A35
:101DE00002C091109A94F7FE0AC03BE3391518F42B
:101DF0005CE3B52E02C0B92CB39427E009C047E0DC
:101E0000491520F4BB2447E0942EF7CF292DBB249D
:101E1000C60104969D878C87F6016081718182815D
:101E20009381AE014F5F5F4F0B2D0E947A186C01BA
:101E30000981202E332400FF04C003FD02C01DE2EF
:101E400009C0F1FE02C01BE205C0F2FC02C010E0B6
:101E500001C010E2C1018C709070892BB9F111237F
:101E600011F483E001C084E0881510F088240AC0D2
:101E7000881AF3FC07C080E290E0B3010E94681961
:101E80008A94C9F7112329F0812F90E0B3010E94B1
:101E9000681923FE03C007EF11E00EC00BEF11E03D
:101EA0000BC0E114F10409F0805290E0B3010E94EC
:101EB00068190F5F1F4F05C0EF2CFF24F0E1EF22E0
:101EC000FF24F8018491882361F714C1F7FE12C042
:101ED000BC0C24FE04C08A81813309F4BA941B141B
:101EE0001CF0BB24B3942DC0F8E0FB1550F538E08E
:101EF000B32E27C0F6FC25C0892D90E08C159D05DA
:101F00004CF02CEFC2162FEFD20624F030E8F32A63
:101F100001C09A94992049F0E2E0F0E0EC0FFD1F37
:101F2000E90DF11D80818033A1F3F7FE0AC0B92CC1
:101F3000B394892D90E0C816D90614F0992401C0F5
:101F40009C18F7FC03C025E030E009C01C141D04F8
:101F50001CF021E030E003C096012F5F3F4F1123BA
:101F600011F02F5F3F4F992029F0892D90E00196C5
:101F7000280F391F882D90E02817390714F088247E
:101F800001C0821A4F2C5524C20189709070892B90
:101F900039F008C080E290E0B3010E9468198A9489
:101FA0008820C1F7112329F0812F90E0B3010E940E
:101FB000681943FE07C008C080E390E0B3010E94A7
:101FC00068198A948820C1F7F7FE46C08601D7FEBB
:101FD00002C000E010E076010894E11CF11CE01A58
:101FE000F10A41E050E04C0F5D1FE40EF51E2601A2
:101FF0004B185108892D90E0AA24BB24A81AB90ACD
:102000005FEF0F3F150729F48EE290E0B3010E94C5
:102010006819C016D10634F0401651061CF4F701B9
:10202000808101C080E3015010400894E11CF11C44
:102030000A151B052CF090E0B3010E946819E0CF4F
:102040000C151D0539F49A81963318F4953311F463
:1020500024FE81E390E04BC08A81813309F00F7E3A
:1020600090E0B3010E9468199920A1F08EE290E0FF
:10207000B3010E94681912E0E1E0F0E0EC0FFD1FEF
:10208000E10FF11D1F5F808190E0B3010E9468198C
:102090009A9491F744FC03C085E690E002C085E481
:1020A00090E0B3010E946819D7FC05C0C114D104A7
:1020B00041F404FF06C0D094C194D108D3948DE2BA
:1020C00001C08BE290E0B3010E94681980E305C073
:1020D0008F5F26EF3FEFC20ED31E3AE0C316D10446
:1020E000BCF790E0B3010E946819C601C096B30125
:1020F0000E946819CC84DD8452C1933631F0933745
:1021000099F0933509F059C023C0F6018081898385
:102110005E010894A11CB11C22E030E0C20ED31E67
:1021200021E0E22EF12C12C0F601A080B18016FD54
:1021300003C06FEF7FEF02C0692D70E022E030E056
:10214000C20ED31EC5010E945D197C011F7713C00A
:10215000F601A080B18016FD03C06FEF7FEF02C0D3
:10216000692D70E022E030E0C20ED31EC5010E944E
:1021700052197C01106813FF07C01BC080E290E079
:10218000B3010E9468198A94882D90E0E816F90638
:10219000A8F30FC0F50117FD859117FF81915F012D
:1021A00090E0B3010E94681981108A940894E108B4
:1021B000F108E114F10471F7F2C0943611F0993688
:1021C00089F517FF08C0F6012081318142815381D2
:1021D00084E090E00AC0F601808191819C0144274F
:1021E00037FD4095542F82E090E0C80ED91E9FE63F
:1021F000F92EF12257FF09C0509540953095219551
:102200003F4F4F4F5F4F90E8F92ACA01B901AE0125
:102210004F5F5F4F2AE030E00E94B819E82EE8894E
:10222000EE1A41C0953721F41F7E2AE030E01CC031
:10223000197F9F3661F0903720F4983509F0B2C0CD
:102240000FC0903739F0983709F0ACC004C028E0CF
:1022500030E00AC0106114FD146020E130E004C0D9
:1022600014FD166020E132E017FF08C0F60160811E
:1022700071818281938144E050E008C0F601808141
:102280009181BC0180E090E042E050E0C40ED51E98
:10229000AE014F5F5F4F0E94B819E82E5889E51ACA
:1022A0008FE7F82EF122F6FE0BC08EEFF822E9142C
:1022B00038F4F4FE07C0F2FC05C09FEEF92202C01C
:1022C0001E2D01C0192DF4FE0DC0FE01EE0DF11DF5
:1022D0008081803319F4E9EEFE2208C01F5FF2FE10
:1022E00005C003C08F2D867809F01F5F0F2DF3FC0A
:1022F00014C0F0FE0FC0181510F09E2C0BC09E2CC1
:10230000980C911A182D06C080E290E0B3010E944B
:1023100068191F5F1815C0F304C0181510F4811A4E
:1023200001C0882404FF0FC080E390E0B3010E9445
:10233000681902FF1DC001FD03C088E790E00EC0D0
:1023400088E590E00BC0802F867891F001FF02C0F5
:102350008BE201C080E2F7FC8DE290E0B3010E94C5
:10236000681906C080E390E0B3010E9468199A944E
:10237000E914C0F3EA94E1E0F0E0EC0FFD1FEE0D8C
:10238000F11D808190E0B3010E946819EE2091F761
:1023900006C080E290E0B3010E9468198A94882008
:1023A000C1F799CCF30166817781CB016196E2E1B7
:1023B0000C94EA17EAECF1E0119283E0E23CF807B2
:1023C000D9F70895843580F5603370F5262F26956A
:1023D00026952695677090E0442399F0E4E52E9FBA
:1023E000F0011124E80FF91FE653FE4F81E090E061
:1023F00002C0880F991F6A95E2F72081282B20835D
:102400000895E4E52E9FF0011124E80FF91FE6532B
:10241000FE4F81E090E002C0880F991F6A95E2F7B5
:10242000809520812823208308952F923F924F92F8
:102430005F926F927F928F929F92AF92BF92CF9254
:10244000DF92EF92FF920F931F93DF93CF93CDB75D
:10245000DEB72D970FB6F894DEBF0FBECDBFD82ED6
:10246000C62E142F022F8417F9F4A62EBB24E22EB9
:10247000FF240EC08D2D6A2D41E00E94E211C0168E
:1024800020F40894A11CB11C03C00894A108B10851
:10249000C01628F4EA14FB040CF4FEC0EBCFAE1413
:1024A000BF040CF4F9C0E6CF282F30E06017F9F430
:1024B000C9015C01E42EFF240EC08A2D6C2D41E081
:1024C0000E94E211D11620F40894A11CB11C03C093
:1024D0000894A108B108D11628F4EA14FB040CF4FE
:1024E000DBC0EBCFAE14BF040CF4D6C0E6CF842F14
:1024F00090E09A838983C9015C0169817A81681BB4
:10250000790B882777FD8095982F0E9451166F834D
:10251000788789879A87202E33244C2C5524B10143
:1025200064197509882777FD8095982F0E945116A8
:102530003B014C012F81388549855A850E94B6158B
:102540006B837C838D839E8320E030E040E050E00D
:102550000E94541787FF0DC0C401B30190582F810A
:10256000388549855A850E94B6156B837C838D8397
:102570009E830F2EF0E0CF2EF0E0DF2EF0E0EF2E66
:10258000F0E0FF2EF02D70C0AB868A2D642D41E067
:102590000E94E211C701B6012B813C814D815E8111
:1025A0000E943B1531C08B85642D41E00E94E211F1
:1025B0001D861C86C401B30120E030E040E050E0FD
:1025C0000E945417181624F4E1E0F0E0FD87EC8730
:1025D00000E010E0C401B30120E030E040E050E052
:1025E0000E94B215882314F401E010E08C859D85CB
:1025F000801B910B480E591EC701B60120E030E048
:1026000040E85FE30E943A156B017C0120E030E076
:1026100040E05FE30E94541788239CF0C401B3019B
:1026200020E030E040E050E00E94541718162CF4EF
:10263000241435040CF0B7CF04C0421453040CF03A
:10264000B2CF6F81788589859A8520E030E040E0BF
:1026500050E00E945417181624F40894A11CB11CD1
:1026600003C00894A108B1086F81788589859A858F
:1026700020E030E040E050E00E945417181634F497
:10268000E981FA81EA15FB053CF07ECF89819A81C8
:10269000A816B9060CF078CF2D960FB6F894DEBFC9
:1026A0000FBECDBFCF91DF911F910F91FF90EF90A3
:1026B000DF90CF90BF90AF909F908F907F906F9062
:1026C0005F904F903F902F9008958F929F92AF927E
:1026D000BF92CF92DF92EF92FF920F931F93CF930F
:1026E000DF93D82EC62E85E0489FA00111248A01D1
:1026F000015A1E4F91E0892E912C84E6A82E81E08C
:10270000B82EA40EB51E1EC06C2D6C0FA4010C2E8D
:1027100002C0440F551F0A94E2F74E215F210C2E90
:1027200002C0559547950A94E2F78D2D0E94E2115B
:102730002196C830D10541F70F5F1F4FD3940A157A
:102740001B0539F0C0E0D0E0F8018491E82EFF24A9
:10275000DBCFDF91CF911F910F91FF90EF90DF9032
:10276000CF90BF90AF909F908F9008950F931F933D
:10277000CF93DF93182F062FEA0106C0812F602F19
:102780000E94651321961B5F48814423B9F7DF91AE
:10279000CF911F910F910895CF93DF9380E060E078
:1027A0000E947414CAECD1E081E069910E94DF13A9
:1027B00083E0C23CD807C1F7DF91CF91089595B16E
:1027C0008295880F807E9F7D982B95B95F9827E032
:1027D00030E070E08F98CB01022E02C0959587956E
:1027E0000A94E2F780FF02C02E9A01C02E988F9AB9
:1027F000215030408FEF2F3F380761F75F9A0895DF
:102800001F93182F579A249A259A269A879A2C98BC
:102810005F9A2C9A80E061E20E94DF13106880E0EA
:10282000612F0E94DF1380E064E00E94DF1380E0EC
:1028300063E10E94DF1380E06CE00E94DF1380E020
:1028400060E20E94DF1380E06CE00E94DF1380E012
:1028500060E40E94DF1380E060E80E94DF131F91B4
:102860000895CF93DF93C0E0D0E081E060E00E9464
:10287000DF13219681E0C83FD807B9F7DF91CF91E8
:1028800008950F931F93CF93DF93082F81E060E0AB
:102890000E94DF1385E0089F80011124E801C15CDC
:1028A000DC4F0B59104001521C4FFE01649181E036
:1028B0000E94DF132196C017D107B9F781E060E0CD
:1028C0000E94DF13DF91CF911F910F910895CF9355
:1028D000DF93EC0103C00E94411421968881882374
:1028E000D1F7DF91CF9108951F93182F606480E096
:1028F0000E94DF13106880E0612F0E94DF131F9198
:102900000895AF92BF92CF92EF920F931F93FC0165
:1029100040835183628373830483158326833783C3
:10292000E08AC18AB48AA38A81E0828B80E090E049
:10293000A0E0B0E080879187A287B38784879587DE
:10294000A687B7871F910F91EF90CF90BF90AF9060
:1029500008953F924F925F926F927F928F929F92D3
:10296000AF92BF92CF92DF92EF92FF920F931F939D
:10297000CF93DF93EC018A89882309F469C06889C1
:1029800070E0882777FD8095982F0E94511620E0EF
:1029900030E040E05EE30E9458170E949F150E94BD
:1029A0002316362E882447C0092D10E0B801882749
:1029B00077FD8095982F0E94511620E030E040E08E
:1029C0005EE30E9458170E948C166B017C0168819F
:1029D00079818A819B810E942316A92CA60E6C8185
:1029E0007D818E819F810E942316B82CB60EC30173
:1029F000B2010E945116A70196010E943B150E9448
:102A00001E16EB89FC89E60FF71F408150E0009508
:102A100010950770107002C0559547950A95E2F71A
:102A200041708A2D6B2D0E94E2119394888998162B
:102A300008F4BACF83948989881650F4839CC00126
:102A4000112499242C01662457FC6094762CEECF37
:102A5000DF91CF911F910F91FF90EF90DF90CF907A
:102A6000BF90AF909F908F907F906F905F904F90AE
:102A70003F9008955058BB27AA270ED0C4C1B5D1A6
:102A800030F0BAD120F031F49F3F11F41EF4AAC106
:102A90000EF4E095E7FB77C1E92FC6D180F3BA17B2
:102AA000620773078407950718F071F49EF5F5C166
:102AB0000EF4E0950B2EBA2FA02D0B01B901900159
:102AC0000C01CA01A0011124FF27591B99F0593F9D
:102AD00050F4503E68F11A16F040A22F232F342FE5
:102AE0004427585FF3CF469537952795A795F04033
:102AF0005395C9F77EF41F16BA0B620B730B840B48
:102B0000BAF09150A1F0FF0FBB1F661F771F881FFF
:102B1000C2F70EC0BA0F621F731F841F48F4879557
:102B200077956795B795F7959E3F08F0B3CF939546
:102B3000880F08F09927EE0F97958795089596D1FD
:102B400080F09F3740F491110EF4A8C160E070E06E
:102B500080E89FE3089526F01B16611D711D811DFD
:102B600018C132C1ECD008F481E008950CD04BC1FB
:102B700043D140F03AD130F021F45F3F19F003C166
:102B800051118CC12FC150D198F39923C9F355230A
:102B9000B1F3951B550BBB27AA2762177307840750
:102BA00038F09F5F5F4F220F331F441FAA1FA9F306
:102BB00033D00E2E3AF0E0E830D091505040E695F8
:102BC000001CCAF729D0FE2F27D0660F771F881F59
:102BD000BB1F261737074807AB07B0E809F0BB0B48
:102BE000802DBF01FF2793585F4F2AF09E3F51056C
:102BF00068F0C9C053C15F3FECF3983EDCF38695A3
:102C000077956795B795F7959F5FC9F7880F911DE1
:102C10009695879597F90895E1E0660F771F881FCD
:102C2000BB1F621773078407BA0720F0621B730B80
:102C3000840BBA0BEE1F88F7E095089504D06894D2
:102C4000B1112CC10895F8D088F09F5790F0B92F9A
:102C50009927B751A0F0D1F0660F771F881F991FF1
:102C60001AF0BA95C9F712C0B13081F016D1B1E0AF
:102C7000089513C1672F782F8827B85F39F0B93FBF
:102C8000CCF3869577956795B395D9F73EF49095F3
:102C90008095709561957F4F8F4F9F4F0895E89471
:102CA00009C097FB3EF490958095709561957F4F94
:102CB0008F4F9F4F9923A9F0F92F96E9BB27939542
:102CC000F695879577956795B795F111F8CFFAF452
:102CD000BB0F11F460FF1BC06F5F7F4F8F4F9F4F83
:102CE00016C0882311F096E911C0772321F09EE8E1
:102CF000872F762F05C0662371F096E8862F70E047
:102D000060E02AF09A95660F771F881FDAF7880F20
:102D10009695879597F90895A9D080F09F3740F44C
:102D200091110EF0BBC060E070E080E89FEB089569
:102D300026F41B16611D711D811D2BC045C0990F06
:102D40000008550FAA0BE0E8FEEF16161706E80775
:102D5000F907C0F012161306E407F50798F0621B96
:102D6000730B840B950B39F40A2661F0232B242B6B
:102D7000252B21F408950A2609F4A140A6958FEF8A
:102D8000811D811D089597F99F6780E870E060E0DC
:102D90000895882371F4772321F09850872B762F9C
:102DA00007C0662311F499270DC09051862B70E05F
:102DB00060E02AF09A95660F771F881FDAF7880F70
:102DC0009695879597F908959F3F31F0915020F49B
:102DD000879577956795B795880F911D96958795F7
:102DE00097F908959FEF80EC089500240A94161631
:102DF000170618060906089500240A9412161306E9
:102E0000140605060895092E0394000C11F4882376
:102E100052F0BB0F40F4BF2B11F460FF04C06F5F92
:102E20007F4F8F4F9F4F089557FD9058440F551F68
:102E300059F05F3F71F04795880F97FB991F61F03C
:102E40009F3F79F087950895121613061406551FB3
:102E5000F2CF4695F1DF08C0161617061806991F1F
:102E6000F1CF86957105610508940895E5DFA0F01E
:102E7000BEE7B91788F4BB279F3860F41616B11D5A
:102E8000672F782F8827985FF7CF86957795679576
:102E9000B11D93959639C8F30895E894BB2766272A
:102EA0007727CB0197F908954ADF08F48FEF08954B
:102EB0000BD0A9CF9ADF28F09FDF18F0952309F0F7
:102EC00062CF90CF1124EACFAFDFA0F3959FD1F36B
:102ED000950F50E0551F629FF001729FBB27F00DC8
:102EE000B11D639FAA27F00DB11DAA1F649F66271D
:102EF000B00DA11D661F829F2227B00DA11D621F6C
:102F0000739FB00DA11D621F839FA00D611D221F25
:102F1000749F3327A00D611D231F849F600D211D09
:102F2000822F762F6A2F11249F5750408AF0E1F0AC
:102F300088234AF0EE0FFF1FBB1F661F771F881FF5
:102F400091505040A9F79E3F510570F01CCFA6CF7D
:102F50005F3FECF3983EDCF3869577956795B795E0
:102F6000F795E7959F5FC1F7FE2B880F911D96950A
:102F7000879597F9089597FB092E07260AD077FDC4
:102F800004D043D006D000201AF4709561957F4F8D
:102F90000895F6F7909581959F4F08952F923F924F
:102FA0004F925F926F927F928F929F92AF92BF9259
:102FB000CF92DF92EF92FF920F931F93CF93DF9305
:102FC000CDB7DEB7CA1BDB0B0FB6F894DEBF0FBE62
:102FD000CDBF09942A88398848885F846E847D84AF
:102FE0008C849B84AA84B984C884DF80EE80FD80B1
:102FF0000C811B81AA81B981CE0FD11D0FB6F89427
:10300000DEBF0FBECDBFED010895AA1BBB1B51E172
:1030100007C0AA1FBB1FA617B70710F0A61BB70B48
:10302000881F991F5A95A9F780959095BC01CD01ED
:103030000895A0E0B0E0EFE1F8E10C94D617EC01C0
:10304000A880B980CA80DB80A114B104C104D10476
:1030500041F484E2A82E89EDB82E8BE5C82E87E0D6
:10306000D82EC601B5012DE133EF41E050E00E94BA
:10307000351A27EA31E440E050E00E94161A7B013D
:103080008C01C601B5012DE133EF41E050E00E9413
:10309000351ACA01B9012CEE34EF4FEF5FEF0E94F1
:1030A000161A6E0D7F1D801F911F97FF04C061507F
:1030B000704080409048688379838A839B839B011A
:1030C0003F77C901CDB7DEB7EAE00C94F2170E9452
:1030D0001918089587EA91E00E9419180895A0E050
:1030E000B0E08093A7019093A801A093A901B093A9
:1030F000AA010895283008F027E03327DA01990F54
:10310000311D87FD916000966105710539F43260CB
:103110002E5F3D9330E32A95E1F708959F3F30F00D
:1031200080387105610509F03C5F3C5F3D9391304B
:1031300008F08068911DDF93CF931F930F93FF9248
:10314000EF92192F987F9695E92F96959695E90F0E
:10315000FF27E75EF94F99273327EE24FF24A701C5
:10316000E70105900894079428F4360FE71EF81E2F
:10317000491F511D660F771F881F991F0694A1F7DD
:103180000590079428F4E70EF81E491F561FC11D2D
:10319000770F881F991F661F0694A1F70590079463
:1031A00028F4F80E491F561FC71FD11D880F991FFD
:1031B000661F771F0694A1F70590079420F4490F26
:1031C000561FC71FD81F990F661F771F881F0694A9
:1031D000A9F784911095177041F0D695C79557952A
:1031E0004795F794E7941A95C1F7EFEBF5E06894EB
:1031F0001590159135916591959105907FE27395A4
:10320000E118F10A430B560BC90BD009C0F7E10CCA
:10321000F11E431F561FC91FD01D7EF4703311F4D9
:103220008A95E6CFE894015030F0080F0AF40027A1
:10323000021708F4202F2395022F7A3328F079E320
:103240007D932A95E9F710C07D932A9589F6069417
:1032500097956795379517951794E118F10A430BE1
:10326000560BC90BD00998F023957E9173957A334C
:1032700008F070E37C932013B8F77E9170617D9322
:1032800030F0839571E37D9370E32A95E1F7112483
:10329000EF90FF900F911F91CF91DF91992787FDBC
:1032A00090950895FC010590615070400110D8F789
:1032B000809590958E0F9F1F0895FC01615070407E
:1032C00001900110D8F7809590958E0F9F1F08955B
:1032D0000F931F93CF93DF938C01EB018B8181FFC1
:1032E0001BC082FF0DC02E813F818C819D812817DC
:1032F000390764F4E881F9810193F983E88306C012
:10330000E885F985802F0995892B31F48E819F817D
:1033100001969F838E8302C00FEF1FEFC801DF91DC
:10332000CF911F910F910895AEE0B0E0EAE9F9E185
:103330000C94DC170D891E8986E08C831A8309831F
:103340008FEF9FE79E838D839E01275E3F4FCE01C7
:1033500001966F89788DA9010E94530E2F813885BF
:10336000020F131FF80110822E96E4E00C94F81758
:10337000FA01AA27283051F1203181F1E8946F93A6
:103380006E7F6E5F7F4F8F4F9F4FAF4FB1E03ED04C
:10339000B4E03CD0670F781F891F9A1FA11D680FEA
:1033A000791F8A1F911DA11D6A0F711D811D911D1D
:1033B000A11D20D009F468943F912AE0269F112492
:1033C0003019305D3193DEF6CF010895462F4770F6
:1033D000405D4193B3E00FD0C9F7F6CF462F4F7051
:1033E000405D4A3318F0495D31FD4052419302D0AF
:1033F000A9F7EACFB4E0A695979587957795679555
:10340000BA95C9F700976105710508959B01AC0154
:103410000A2E06945795479537952795BA95C9F77B
:10342000620F731F841F951FA01D0895629FD00116
:10343000739FF001829FE00DF11D649FE00DF11D6F
:10344000929FF00D839FF00D749FF00D659FF00D1E
:103450009927729FB00DE11DF91F639FB00DE11D0B
:10346000F91FBD01CF011124089597FB092E0526F0
:103470000ED057FD04D014D00AD0001C38F450955B
:103480004095309521953F4F4F4F5F4F0895F6F788
:1034900090958095709561957F4F8F4F9F4F0895C0
:1034A000A1E21A2EAA1BBB1BFD010DC0AA1FBB1F48
:1034B000EE1FFF1FA217B307E407F50720F0A21BBA
:1034C000B30BE40BF50B661F771F881F991F1A9427
:1034D00069F760957095809590959B01AC01BD0151
:0834E000CF010895F894FFCF1D
:1034E80057616974696E6720666F720064656275FA
:1034F800676765722E2E2E00583A20257500533ABC
:1035080020257500010001000300010007E01818DC
:1035180020044002581A98198001800100001042C6
:10352800FFFF9819A005C003D81B981980018001D6
:10353800900990098811C7E3C003A0059819FFFFF7
:10354800FFFF9819A005C003D81B8C3183C18001E7
:10355800900990098811C7E3C003A0059819FFFFD7
:10356800FFFF9819A665C003D81B80018001800160
:10357800900990098811C7E3C003A0059819FFFFB7
:0C35880000E1000000000801000000004D
:00000001FF
