:100000000C945D030C947A030C947A030C947A0399
:100010000C947A030C947A030C947A030C947A036C
:100020000C947A030C947A030C94C2180C94FD1867
:100030000C947A030C947A030C947A030C947A034C
:100040000C947A030C947A030C947A030C947A033C
:100050000C947A030C947A030C947A030C947A032C
:100060000C947A030C947A030C947A030C947A031C
:100070000C947A030C947A030C947A030C947A030C
:100080000C947A030C947A030C947A030C947A03FC
:100090000C947A030C947A030C947A030C947A03EC
:1000A0000C947A030C947A030C947A03571854181E
:1000B00051184E184B184818451842183F183C184C
:1000C00039183618331830182D182A1827182418FC
:1000D00021181E181B181818151812180F180C18AC
:1000E0000918061803180018FD17FA17F717F41760
:1000F000F117EE17EB17E817E517E217DF17DC1714
:10010000D917D617D317D017CD17CA17C717C417C3
:10011000C117BE17BB17B817B517B217AF17AC1773
:10012000A917A617A317A0179D179A1797170001CD
:10013000000062011200020000740143000300008D
:10014000B7010401030904BB011402030904D1012E
:100150001603030904E9010C0001C11201803601F4
:1001600081361201000202000010C0167A0400015C
:100170000102030109024300020100C03209040028
:100180000001020201000524001001052401010103
:10019000042402060524060001070582031000401E
:1001A00009040100020A00000007050302400000E4
:1001B0000705840240000004030904140359006F7A
:1001C000007500720020004E0061006D00650000A7
:1001D00000160355005300420020005300650072D2
:1001E00000690061006C0000000C03310032003334
:1001F000003400350000006E616E00696E6600001C
:100200000000000000005F00000007000700147FEE
:10021000147F14242A7F2A12231308646236495556
:1002200022500005030000001C2241000041221C56
:100230000014083E081408083E080800503000006A
:100240000808080808006060000020100804023E4A
:100250005149453E00427F4000426151494621419B
:10026000454B311814127F1027454545393C4A4902
:10027000493001710905033649494936064949297A
:100280001E003636000000563600000814224100D9
:1002900014141414140041221408020151090632E6
:1002A0004979413E7E1111117E7F494949363E41CF
:1002B0004141227F4141221C7F494949417F09092F
:1002C00009013E4149497A7F0808087F00417F4182
:1002D000002040413F017F081422417F40404040C0
:1002E0007F020C027F7F0408107F3E4141413E7F28
:1002F000090909063E4151215E7F091929464649EF
:1003000049493101017F01013F4040403F1F2040EA
:10031000201F3F4038403F631408146307087008EB
:10032000076151494543007F414100020408102004
:100330000041417F0004020102044040404040006F
:100340000102040020545454787F4844443838440F
:10035000444420384444487F3854545418087E0993
:1003600001020C5252523E7F0804047800447D4042
:10037000002040443D007F1028440000417F4000A1
:100380007C041804787C0804047838444444387C9D
:1003900014141408081414187C7C08040408485425
:1003A000545420043F4440203C4040207C1C2040CA
:1003B000201C3C4030403C44281028440C505050F5
:1003C0003C4464544C44000836410000007F000067
:1003D00000413608001008081008784641467800A9
:1003E0000000000000005F00000007000700147F0D
:1003F000147F14242A7F2A12231308646236495575
:1004000022500005030000001C2241000041221C74
:100410000014083E081408083E0808005030000088
:100420000808080808006060000020100804023E68
:100430005149453E00427F400042615149462141B9
:10044000454B311814127F1027454545393C4A4920
:100450004930017109050336494949360649492998
:100460001E003636000000563600000814224100F7
:100470001414141414004122140802015109063204
:100480004979413E7E1111117E7F494949363E41ED
:100490004141227F4141221C7F494949417F09094D
:1004A00009013E4149497A7F0808087F00417F41A0
:1004B000002040413F017F081422417F40404040DE
:1004C0007F020C027F7F0408107F3E4141413E7F46
:1004D000090909063E4151215E7F0919294646490D
:1004E00049493101017F01013F4040403F1F204009
:1004F000201F3F4038403F6314081463070870080A
:10050000076151494543007F414100020408102022
:100510000041417F0004020102044040404040008D
:100520000102040020545454787F4844443838442D
:10053000444420384444487F3854545418087E09B1
:1005400001020C5252523E7F0804047800447D4060
:10055000002040443D007F1028440000417F4000BF
:100560007C041804787C0804047838444444387CBB
:1005700014141408081414187C7C08040408485443
:10058000545420043F4440203C4040207C1C2040E8
:10059000201C3C4030403C44281028440C50505013
:1005A0003C4464544C44000836410000007F000085
:1005B00000413608001008081008784641467800C7
:1005C000407A10F35A00A0724E18090010A5D4E822
:1005D0000000E87648170000E40B54020000CA9AB5
:1005E0003B000000E1F50500008096980000004007
:1005F000420F000000A0860100000010270000004C
:1006000000E803000000006400000000000A000091
:100610000000000100000000002C76D888DC674F45
:100620000823DFC1DFAE59E1B1B796E5E3E453C675
:100630003AE651997696E8E6C28426EB898C9B626D
:10064000ED407C6FFCEFBC9C9F40F2BAA56FA5F417
:1006500090055A2AF75C936B6CF9676DC11BFCE03F
:10066000E40D47FEF520E6B500D0ED902E03009492
:100670003577050080841E080000204E0A00000027
:10068000C80C333333330F986E12831141EF8D2131
:1006900014893BE65516CFFEE6DB18D1844B381B98
:1006A000F77C1D901DA4BBE424203284725E22815D
:1006B00000C9F124ECA1E53D270011241FBECFEFB6
:1006C000DAE0DEBFCDBF11E0A0E0B1E0E2E1FDE4A1
:1006D00002C005900D92A439B107D9F713E0A4E93F
:1006E000B1E001C01D92AA3AB107E1F70E94F608F5
:1006F0000C9487260C94000090917C008770987F62
:10070000892B80937C0080917A00806480937A00AA
:1007100080917A0086FDFCCF20917800309179009D
:10072000C9010895FC0180E090E0A0E0B0E0808382
:100730009183A283B38384839583A683B78380E068
:1007400090E0A0E8BEE380879187A287B387848783
:100750009587A687B78781E090E0918B808B938BFC
:10076000828B158A148A0895109295011092940133
:1007700081E090E09093400180933F0183E090E01E
:100780009093420180934101109299011092980137
:1007900080E090E0A8E2B2E4809355019093560186
:1007A000A0935701B093580180E090E0A0E2B2E43A
:1007B0008093AA019093AB01A093AC01B093AD01DB
:1007C00080913D0190913E01039781F41092400188
:1007D00010923F0184E090E09093420180934101A8
:1007E0008EEF9FEF909399018093980108952F9237
:1007F0003F924F925F926F927F928F929F92AF92B1
:10080000BF92CF92DF92EF92FF920F931F93DF93ED
:10081000CF93CDB7DEB728970FB6F894DEBF0FBEE3
:10082000CDBF98878F837E836D83DC01ED90FD9033
:100830000D911C91A0905501B0905601C0905701A8
:10084000D0905801C601B50120E030E040E051E40D
:100850000E944F219B01AC01C801B7010E9469238E
:1008600018160CF041C0C601B50120E030E040E0B0
:1008700051E40E9450219B01AC01C801B7010E94C4
:10088000C72188238CF5EF81F88564807580868088
:100890009780A090AA01B090AB01C090AC01D0901D
:1008A000AD01C601B50120E030E040E051E40E9416
:1008B0004F219B01AC01C401B3010E9469231816AA
:1008C0009CF4C601B50120E030E040E051E40E9414
:1008D00050219B01AC01C401B3010E94C7218823B0
:1008E0001CF421E030E06DC180913D0190913E010A
:1008F000039709F064C1C801B70120E030E040E08F
:1009000051E40E94502120E030E046EA52E40E9487
:100910006923181664F4EF81F88580859185A28596
:10092000B385BF77B05880879187A287B387AF819F
:10093000B8856D917D918D919C9120E030E040E8EB
:100940005FE30E94C72188235CF4EF81F8858085EE
:100950009185A285B385BF7780879187A287B3876A
:10096000AF81B88514966D917D918D919C9117976B
:1009700020E030E040E051E40E94502120E030E0EF
:100980004CE352E40E946923181664F4EF81F88561
:1009900084859585A685B785BF77B0588487958768
:1009A000A687B787AF81B88514966D917D918D919B
:1009B0009C91179720E030E040E351E40E94C7216A
:1009C00088235CF4EF81F88584859585A685B785B5
:1009D000BF7784879587A687B787AF81B8852D9025
:1009E0003D904D905C90AD81BE818D919D910D901B
:1009F000BC91A02D89839A83AB83BC83BC01CD01BC
:100A000020E030E040E051E40E944F219B01AC0126
:100A1000C201B1010E94692318160CF0D0C069818F
:100A20007A818B819C8120E030E040E051E40E949B
:100A300050219B01AC01C201B1010E94C721882352
:100A40000CF0BDC0EF81F885A480B580C680D7804A
:100A5000AD81BE8114966D907D908D909C9017977E
:100A6000C401B30120E030E040E051E40E944F2196
:100A70009B01AC01C601B5010E94692318160CF058
:100A80009EC0C401B30120E030E040E051E40E9488
:100A900050219B01AC01C601B5010E94C7218823EA
:100AA0000CF08DC069817A818B819C81A2019101BA
:100AB0000E944F217B018C01E89417F9C401B30116
:100AC000A60195010E944F219B01AC015F77C801EF
:100AD000B7010E9469231816C4F5C201B10129812A
:100AE0003A814B815C810E946923EF81F8852085E2
:100AF000318542855385181694F4DA01C901BF7710
:100B0000EF81F88580879187A287B387ED81FE8189
:100B100080859185A285B385BF77B05811C0DA0171
:100B2000C901BF77B058EF81F88580879187A28788
:100B3000B387ED81FE8180859185A285B385BF77DE
:100B400080879187A287B38725C0C601B501A4011C
:100B500093010E946923AF81B8851C962D913D9128
:100B60004D915C911F971816C4F4DA01C901BF7743
:100B7000EF81F88584879587A687B787ED81FE8109
:100B800084859585A685B785BF77B0588487958776
:100B9000A687B78722E030E014C0DA01C901BF7729
:100BA000B058EF81F88584879587A687B787ED8150
:100BB000FE8184859585A685B785BF77E7CF20E040
:100BC00030E0C90128960FB6F894DEBF0FBECDBF46
:100BD000CF91DF911F910F91FF90EF90DF90CF9019
:100BE000BF90AF909F908F907F906F905F904F904D
:100BF0003F902F9008958FB182958695877080FDE4
:100C000003C020E030E00CC080EA9FE00197F1F7DC
:100C10008FB1829586958770282F30E021703070D3
:100C2000C90108958FB1829586958695837080FD60
:100C300003C020E030E00DC080E197E20197F1F7BA
:100C40008FB18295869586958370282F30E021702C
:100C50003070C9010895EF92FF920F931F937B01AB
:100C60008C0120E030E040E050E00E94692318163B
:100C70001CF421E030E01CC0C801B70120E030E0E6
:100C800040E050E00E94C721882319F420E030E0C2
:100C90000FC0C801B70120E030E040E050E00E9402
:100CA000C72187FD03C022E030E002C02FEF3FEFF5
:100CB000C9011F910F91FF90EF9008952F923F92DD
:100CC0004F925F926F927F928F929F92AF92BF925C
:100CD000CF92DF92EF92FF920F931F93DF93CF9308
:100CE00000D000D0CDB7DEB79C838B837A83698335
:100CF0001A0181E090E0EB81FC81938B828B958BD4
:100D0000848B80913D0190913E01039751F1809138
:100D10003D0190913E01039721F180E090E0A0E237
:100D2000B1E484839583A683B78380E090E0A0E05C
:100D3000B0E080879187A287B3870E949E2464E4F5
:100D400070E00E94EF23AA2797FDA095BA2FBC015F
:100D5000CD010E946622EB81FC81608371838283D6
:100D6000938380913D0190913E01039709F074C0F7
:100D70000E949E246FE170E00E94EF23AA2797FD56
:100D8000A095BA2FBC01CD010E946622EB81FC81A7
:100D9000648375838683978320E030E040E351E4E9
:100DA0000E94C72187FDE4CFEB81FC81E084F184C0
:100DB000028513850E949E2462E070E00E94EF236A
:100DC000880F991F0197AA2797FDA095BA2FBC01FC
:100DD000CD010E9466229B01AC01C801B7010E94AF
:100DE0006D23EB81FC816087718782879387E48420
:100DF000F584068517850E949E2462E070E00E94BB
:100E0000EF23880F991F0197AA2797FDA095BA2F66
:100E1000BC01CD010E9466229B01AC01C801B70153
:100E20000E946D23EB81FC81648775878687978795
:100E30000E949E2464E470E00E94EF23AA2797FD9D
:100E4000A095BA2FBC01CD010E946622EB81FC81E6
:100E5000608371838283938381E0482E512C65C027
:100E600080913D0190913E01039789F50E949E2457
:100E700064E470E00E94EF23AA2797FDA095BA2FA3
:100E8000BC01CD010E946622EB81FC8160837183ED
:100E9000828393830E949E246FE170E00E94EF237F
:100EA000AA2797FDA095BA2FBC01CD010E9466220A
:100EB000EB81FC81648375838683978320E030E037
:100EC00040E351E40E94C72187FDE4CF14C00E9493
:100ED0009E2464E470E00E94EF23AA2797FDA0956A
:100EE000BA2FBC01CD010E946622EB81FC81608398
:100EF000718382839383FAE04F16510499F480E062
:100F000090E0A8E4B2ECEB81FC8180839183A28322
:100F1000B38384839583A683B783138A128A158A41
:100F2000148A36C10894411C511CEB81FC81A080BD
:100F3000B180C280D380E981FA81E080F1800281B2
:100F40001381C801B70120E030E040E551E40E9480
:100F50004F219B01AC01C601B5010E9469231816FF
:100F60000CF03CC0C801B70120E030E040E551E49E
:100F70000E9450219B01AC01C601B5010E94C7210E
:100F8000882364F5EB81FC8164807580868097807E
:100F9000E981FA81E480F58006811781C801B701F3
:100FA00020E030E040E551E40E944F219B01AC017C
:100FB000C401B3010E946923181684F4C801B70163
:100FC00020E030E040E551E40E9450219B01AC015B
:100FD000C401B3010E94C72187FDD5C0F101E080A3
:100FE000F18002811381C801B70120E030E040E5C3
:100FF00051E40E944F219B01AC01C601B5010E9442
:1010000069231816DCF5C801B70120E030E040E59F
:1010100051E40E9450219B01AC01C601B5010E9420
:10102000C72188235CF5EB81FC8164807580868014
:101030009780F101E480F58006811781C801B7012E
:1010400020E030E040E551E40E944F219B01AC01DB
:10105000C401B3010E946923181684F4C801B701C2
:1010600020E030E040E551E40E9450219B01AC01BA
:10107000C401B3010E94C72187FD85C0E0905501DE
:10108000F09056010091570110915801C801B70125
:1010900020E030E040E551E40E944F219B01AC018B
:1010A000C601B5010E94692318160CF03EC0C801A4
:1010B000B70120E030E040E551E40E9450219B015F
:1010C000AC01C601B5010E94C721882374F5EB81EC
:1010D000FC816480758086809780E090AA01F09002
:1010E000AB010091AC011091AD01C801B70120E046
:1010F00030E040E551E40E944F219B01AC01C40166
:10110000B3010E946923181684F4C801B70120E0D6
:1011100030E040E551E40E9450219B01AC01C40144
:10112000B3010E94C72187FD2EC0C601B50120E092
:1011300030E040E050E00E94C72187FD24C0C60196
:10114000B50120E030E048EA52E40E946923181615
:10115000D4F0EB81FC81E480F58006811781C80121
:10116000B70120E030E040E050E00E94C72187FD59
:101170000AC0C801B70120E030E040E452E40E9418
:10118000692318162CF4FBE04F16510409F068CEC1
:10119000EB81FC81118A108A0F900F900F900F90B5
:1011A000CF91DF911F910F91FF90EF90DF90CF9043
:1011B000BF90AF909F908F907F906F905F904F9077
:1011C0003F902F9008958FE30E94152080B38F7970
:1011D00080BB84B18C6084B980E480937C0087E814
:1011E00080937A000E947816789408952F923F9207
:1011F0004F925F926F927F928F929F92AF92BF9227
:10120000CF92DF92EF92FF920F931F93DF93CF93D2
:10121000CDB7DEB7CA5ED0400FB6F894DEBF0FBEC2
:10122000CDBF80E88093610081E080936100CE01B2
:10123000019640E050E068E272E400E010E020E255
:1012400032E4F8E0EF2EE8E0CE2EB5E4AB2EB1E0CC
:10125000BB2E0E94962080E090E0A8E2B2E480934A
:10126000550190935601A0935701B093580180E027
:1012700090E0A0E2B2E48093AA019093AB01A09326
:10128000AC01B093AD01CE01469640E050E060EA7B
:1012900071E400E010E020E030E0A9E5AA2EA1E032
:1012A000BA2E0E949620CE018B9640E050E060E27C
:1012B00072E400E010E020E030E0F9E6AF2EF1E06B
:1012C000BF2E0E949620CE01805C9F4F40E050E0F0
:1012D00060E772E400E010E020E030E0E9E7AE2EE5
:1012E000E1E0BE2E0E9496200E94E308C751DF4F26
:1012F00019821882C95ED040C951DF4F1982188205
:10130000C75ED040B5E58B2E912C8C0E9D1EABE6B2
:10131000CA2ED12CCC0EDD1EF1E86F2E712C6C0E76
:101320007D1E00E010E0C751DF4F28813981C95E82
:10133000D040232BE9F40E94EF1D80E06AE040E0FA
:1013400051E00E94CB1F80E06EE14FE051E00E942F
:10135000CB1F0E94E11F0F5F1F4F0436110559F785
:1013600081E090E0C751DF4F99838883C95ED04008
:10137000C751DF4FA881B981C95ED040119709F0EC
:1013800016C3E0E1EE2EE7E2FE2E01E010E00E943F
:10139000EF1D80913D0190913E0100D000D000D022
:1013A000EDB7FEB7319627E930E02C0F3D1FADB702
:1013B000BEB712963C932E931197A8E1B1E0B38388
:1013C000A283958384830E94C825EDB7FEB7369625
:1013D0000FB6F894FEBF0FBEEDBF80E060E0AE0137
:1013E00049565F4F0E94CB1F0E94E11F7E9B2DC07C
:1013F00080919601909197010E94A32420913D0134
:1014000030913E012F5F3F4FC751DF4F3983288313
:10141000C95ED0400E94B403C4010E949203C60179
:101420000E949203C3010E949203C401B601A3016A
:101430000E945E06C601B401A3010E945E06C301BC
:10144000B601A4010E945E06B2C27D9B31C0C951A3
:10145000DF4F88819981C75ED040892B49F5C7014C
:101460000197F1F77D9B24C080913D0190913E0151
:10147000019690933E0180933D0180913D019091B2
:101480003E0104974CF4A1E0B0E0C951DF4FB983AD
:10149000A883C75ED0400CC010933E0100933D016D
:1014A000E1E0F0E0C951DF4FF983E883C75ED04047
:1014B0007D9906C0C951DF4F19821882C75ED0409E
:1014C0008091960190919701019690939701809356
:1014D00096015DCFD40152968D919C915397892BA3
:1014E00029F4C401B601A3010E945E06F6018289B7
:1014F0009389892B29F4C601B401A3010E945E06D9
:10150000D30152968D919C915397892B29F4C30155
:10151000B601A4010E945E060E94EF1D0E94EF1D0D
:10152000809141019091420100D000D000D0EDB7F0
:10153000FEB7319627E930E02C0F3D1FADB7BEB79F
:1015400012963C932E931197A2E2B1E0B383A2834B
:10155000958384830E94C825EDB7FEB736960FB6F3
:10156000F894FEBF0FBEEDBF80E060E0AE014956CB
:101570005F4F0E94CB1F809198019091990100D0FC
:1015800000D000D0EDB7FEB7319627E930E02C0F40
:101590003D1FADB7BEB712963C932E931197A8E2AC
:1015A000B1E0B383A283958384830E94C825EDB7FD
:1015B000FEB736960FB6F894FEBF0FBEEDBF8EE1B4
:1015C00060E0AE0149565F4F0E94CB1F80E069E0AA
:1015D00044E529E00E942A1E809155019091560110
:1015E000A0915701B091580189839A83AB83BC8342
:1015F0008091AA019091AB01A091AC01B091AD0195
:101600008D839E83AF83B887D4016D917D918D9139
:101610009C91139718962D913D914D915C911B973C
:101620000E9450217B018C01F401608371838283CD
:10163000938364817581868197812485358546856C
:1016400057850E945021D40114966D937D938D93FC
:101650009C931797EE8AFF8A088F198F6A8F7B8F6A
:101660008C8F9D8FF60160817181828193812085AD
:101670003185428553850E9450217B018C01D60122
:101680006D937D938D939C93139714966D917D919B
:101690008D919C9117971C962D913D914D915C9148
:1016A0001F970E945021F601648375838683978378
:1016B000EBA6FCA60DA71EA76FA778AB89AB9AABCC
:1016C000D3016D917D918D919C91139718962D91D9
:1016D0003D914D915C911B970E9450217B018C01A3
:1016E000F301608371838283938364817581868132
:1016F000978124853585468557850E945021D301E1
:1017000014966D937D938D939C9317972496ECAECE
:10171000FDAE0EAF1FAF249728966CAF7DAF8EAF96
:101720009FAF289780913F0190914001019799F4D4
:1017300080E090E0A0E8BEE3F40184879587A68767
:10174000B787F60184879587A687B787F3018487D3
:101750009587A687B78780913F01909140010297B6
:1017600099F480E090E0A0E0BFE3F40184879587DE
:10177000A687B787F60184879587A687B787F30181
:1017800084879587A687B78780913F019091400114
:10179000039799F4D4011C962D923D924D925C9240
:1017A0001F97F6012486358646865786D3011C96F8
:1017B0002D923D924D925C921F97C401B6010E94FA
:1017C000F703019771F4C401B601A3010E945E06FC
:1017D000809198019091990102969093990180933C
:1017E0009801C601B4010E94F703019771F4C60184
:1017F000B401A3010E945E068091410190914201D3
:1018000001979093420180934101C301B6010E9468
:10181000F7030197A1F4C301B601A4010E945E067B
:1018200080913F019091400103974CF480913F01DA
:101830009091400101969093400180933F01F40103
:10184000648175818681978120E030E040E452E434
:101850000E94692318162CF4C401B601A3010E944A
:101860005E06D60114966D917D918D919C9117978E
:1018700020E030E040E452E40E94692318162CF482
:10188000C601B401A3010E945E06F3016481758163
:101890008681978120E030E040E452E40E94692391
:1018A00018162CF4C301B601A4010E945E067D9BAC
:1018B00028C0E0905501F090560100915701109119
:1018C0005801C801B70120E030E040E051E40E9437
:1018D000502120E030E048EA52E40E94C7218823EA
:1018E00084F4C801B70120E030E040E050E40E94F9
:1018F0005021609355017093560180935701909346
:1019000058010E941206892B11F1E0905501F090C8
:1019100056010091570110915801C801B70120E00C
:1019200030E040E050E00E946923181684F4C801BA
:10193000B70120E030E040E050E40E944F21609386
:101940005501709356018093570190935801CE0131
:1019500001960E94BE20CE0146960E94BE20CE0176
:101960008B960E94BE20CE01805C9F4F0E94BE20BD
:101970000E94E11F80E29EE40197F1F780919801B7
:1019800090919901449731F08091410190914201E9
:10199000892BD1F4B0923E01A0923D0121E030E0CC
:1019A000C751DF4F39832883C95ED0400DC00F2E49
:1019B000F0E02F2EF0E03F2EF0E84F2EFFE35F2EF9
:1019C000F02D71E0A72EB12CC751DF4F888199818E
:1019D000C95ED040029709F47DCD41C2D401529630
:1019E0008D919C915397892B29F4C401B601A301D1
:1019F0000E945E06F60182899389892B29F4C6012B
:101A0000B401A3010E945E06D30152968D919C9170
:101A10005397892B29F4C301B601A4010E945E06E5
:101A200080E00E947C035C0181E00E947C030E94B4
:101A3000EF1D0E94EF1D809141019091420100D065
:101A400000D000D0EDB7FEB7319627E930E02C0F7B
:101A50003D1FADB7BEB712963C932E931197A2E2ED
:101A6000B1E0B383A283958384830E94C825EDB738
:101A7000FEB736960FB6F894FEBF0FBEEDBF80E0FE
:101A800060E0AE0149565F4F0E94CB1F80919801E4
:101A90009091990100D000D000D0EDB7FEB73196FB
:101AA00027E930E02C0F3D1FADB7BEB712963C932F
:101AB0002E931197A8E2B1E0B383A2839583848328
:101AC0000E94C825EDB7FEB736960FB6F894FEBF54
:101AD0000FBEEDBF8EE160E0AE0149565F4F0E9440
:101AE000CB1F80E069E044E529E00E942A1E809136
:101AF000550190915601A0915701B09158018983E9
:101B00009A83AB83BC838091AA019091AB01A09191
:101B1000AC01B091AD018D839E83AF83B887D401B2
:101B20006D917D918D919C91139718962D913D917A
:101B30004D915C911B970E9450217B018C01F40117
:101B400060837183828393836481758186819781A9
:101B500024853585468557850E945021D4011496E9
:101B60006D937D938D939C931797EE8AFF8A088FD0
:101B7000198F6A8F7B8F8C8F9D8FF60160817181A9
:101B80008281938120853185428553850E94502131
:101B90007B018C01D6016D937D938D939C9313975C
:101BA00014966D917D918D919C9117971C962D9116
:101BB0003D914D915C911F970E945021F6016483E5
:101BC000758386839783EBA6FCA60DA71EA76FA738
:101BD00078AB89AB9AABD3016D917D918D919C913E
:101BE000139718962D913D914D915C911B970E94F2
:101BF00050217B018C01F301608371838283938385
:101C000064817581868197812485358546855785D0
:101C10000E945021D30114966D937D938D939C93D4
:101C200017972496ECAEFDAE0EAF1FAF2497289603
:101C30006CAF7DAF8EAF9FAF289780913F019091A1
:101C40004001019799F480E090E0A0E8BEE3F40140
:101C500084879587A687B787F60184879587A687A7
:101C6000B787F30184879587A687B78780913F015F
:101C700090914001029799F480E090E0A0E0BFE3EA
:101C8000F40184879587A687B787F60184879587AF
:101C9000A687B787F30184879587A687B787809142
:101CA0003F0190914001039799F4D4011C962D9225
:101CB0003D924D925C921F97F601248635864686AA
:101CC0005786D3011C962D923D924D925C921F97A0
:101CD000C401B6010E94F703019771F4C401B60173
:101CE000A3010E945E06809198019091990102964D
:101CF0009093990180939801C601B4010E94F70363
:101D0000019771F4C601B401A3010E945E0680919F
:101D100041019091420101979093420180934101CA
:101D2000C301B6010E94F7030197A1F4C301B601F4
:101D3000A4010E945E0680913F01909140010397AB
:101D40004CF480913F0190914001019690934001A5
:101D500080933F01F401648175818681978120E041
:101D600030E040E452E40E94692318162CF4C401C8
:101D7000B601A3010E945E06D60114966D917D9175
:101D80008D919C91179720E030E040E452E40E944E
:101D9000692318162CF4C601B401A3010E945E0643
:101DA000F301648175818681978120E030E040E411
:101DB00052E40E94692318162CF4C301B601A40151
:101DC0000E945E06CE0101960E94BE20CE0146967C
:101DD0000E94BE20CE018B960E94BE20CE01805C68
:101DE0009F4F0E94BE20B50180E090E02CE430E0DF
:101DF00040E050E00E94D0230E94662220E030ECB8
:101E00004FE754E40E94CB210E9433220E946622B5
:101E10006093550170935601809357019093580138
:101E20000E94E11F80E29EE40197F1F78091980102
:101E300090919901449731F0809141019091420134
:101E4000892BB9F421E030E030933E0120933D012D
:101E5000C751DF4F39832883C95ED0400AC00F2E97
:101E6000F0E02F2EF0E03F2EF0E84F2EFFE35F2E44
:101E7000F02DC751DF4F88819981C95ED04003970B
:101E800009F4ACCD23C78091430190914401892B83
:101E900091F08AE068E14EE251E00E94CB1F0E947F
:101EA000E11F0E9491168823E1F30E949318882372
:101EB000C1F30E94D4166CE6A62EB12C0CC00E9471
:101EC00094165C0180919A0190919B0101969093E8
:101ED0009B0180939A010E94B916882381F797E7A6
:101EE000A916B104D9F4E090AA01F090AB010091D9
:101EF000AC011091AD01C801B70120E030E040E332
:101F000051E40E94692318164CF4C801B70120E07F
:101F100030E040E050E40E944F2124C0A3E7AA161D
:101F2000B10449F5E090AA01F090AB010091AC0139
:101F30001091AD01C801B70120E030E040E051E46C
:101F40000E94502120E030E040E452E40E94C7218A
:101F500088238CF4C801B70120E030E040E050E471
:101F60000E9450216093AA017093AB018093AC0151
:101F70009093AD014BC0B1E6AB16B104D9F4E0903B
:101F80005501F09056010091570110915801C80178
:101F9000B70120E030E040E050E00E9469231816CD
:101FA0004CF4C801B70120E030E040E050E40E946A
:101FB0004F2124C0E4E6AE16B10441F5E09055018E
:101FC000F09056010091570110915801C801B701D6
:101FD00020E030E040E051E40E94502120E030E079
:101FE00048EA52E40E94C721882384F4C801B7015B
:101FF00020E030E040E050E40E9450216093550121
:102000007093560180935701909358010E94EF1DE1
:10201000D40152968D919C915397892B29F4C40138
:10202000B601A3010E945E06F60182899389892B7D
:1020300029F4C601B401A3010E945E06D3015296A1
:102040008D919C915397892B29F4C301B601A4016A
:102050000E945E06C401B6010E94F703019729F4AD
:10206000C401B601A3010E945E06F4016081718182
:102070008281938120853185428553850E9450213C
:10208000D4016D937D938D939C93139714966D91CA
:102090007D918D919C9117971C962D913D914D911D
:1020A0005C911F970E945021F4016483758386839D
:1020B0009783C601B3010E94F703019729F4C60173
:1020C000B401A3010E945E06D6016D917D918D91B0
:1020D0009C91139718962D913D914D915C911B9772
:1020E0000E945021F601608371838283938364810F
:1020F00075818681978124853585468557850E941F
:102100005021D60114966D937D938D939C931797D0
:10211000C301B4010E94F703019729F4C301B6017A
:10212000A4010E945E06F301608171818281938126
:1021300020853185428553850E9450217B018C0189
:10214000D3016D937D938D939C93139714966D910A
:102150007D918D919C9117971C962D913D914D915C
:102160005C911F970E945021F301648375838683DD
:102170009783D4012D913D914D915C9113972E8BB6
:102180003F8B488F598F14962D913D914D915C91C5
:1021900017972A8F3B8F4C8F5D8FF60120813181FD
:1021A000428153812BA73CA74DA75EA7248135818F
:1021B000468157812FA738AB49AB5AAB2496ECAE7A
:1021C000FDAE0EAF1FAF249728966CAF7DAF8EAFDC
:1021D0009FAF28970E94EF1D80914101909142018D
:1021E00000D000D000D0EDB7FEB7319627E930E03F
:1021F0002C0F3D1FADB7BEB712963C932E9311978F
:10220000A2E2B1E0B383A283958384830E94C825B0
:10221000EDB7FEB736960FB6F894FEBF0FBEEDBF12
:1022200080E060E0AE0149565F4F0E94CB1F809175
:1022300098019091990100D000D000D0EDB7FEB781
:10224000319627E930E02C0F3D1FADB7BEB712968F
:102250003C932E931197A8E2B1E0B383A2839583B8
:1022600084830E94C825EDB7FEB736960FB6F89462
:10227000FEBF0FBEEDBF8EE160E0AE0149565F4F7D
:102280000E94CB1F80E069E044E529E00E942A1EFD
:102290008091550190915601A0915701B09158013C
:1022A00089839A83AB83BC838091AA019091AB010F
:1022B000A091AC01B091AD018D839E83AF83B887AF
:1022C000D40154968D919C915597892B69F08091FA
:1022D00098019091990102969093990180939801A9
:1022E00055961C921E925497F60184899589892BE4
:1022F00059F08091410190914201019790934201E0
:1023000080934101158A148AD30154968D919C9132
:102310005597892B09F4A7C480913F019091400102
:1023200003974CF480913F01909140010196909366
:10233000400180933F0180913F01909140010197BE
:1023400009F08CC1F401E484F58406851785C80181
:10235000B70120E030E040E050E00E946923181609
:102360001CF421E030E01CC0C801B70120E030E0DF
:1023700040E050E00E94C721882319F420E030E0BB
:102380000FC0C801B70120E030E040E050E00E94FB
:10239000C72187FD03C022E030E002C02FEF3FEFEE
:1023A000B901882777FD8095982F0E94662220E04A
:1023B00030E040E85EE30E946D23D4011C966D93EB
:1023C0007D938D939C931F97F601E484F584068595
:1023D0001785C801B70120E030E040E050E00E94DE
:1023E000692318161CF421E030E01CC0C801B701B5
:1023F00020E030E040E050E00E94C721882319F43B
:1024000020E030E00FC0C801B70120E030E040E03C
:1024100050E00E94C72187FD03C022E030E002C0E7
:102420002FEF3FEFB901882777FD8095982F0E9405
:10243000662220E030E040E85EE30E946D23D60192
:102440001C966D937D938D939C931F97F301E48469
:10245000F58406851785C801B70120E030E040E02B
:1024600050E00E94692318161CF421E030E01CC0E3
:10247000C801B70120E030E040E050E00E94C721F1
:10248000882319F420E030E00FC0C801B70120E034
:1024900030E040E050E00E94C72187FD03C022E009
:1024A00030E002C02FEF3FEFB901882777FD80951C
:1024B000982F0E94662220E030E040E85EE30E9410
:1024C0006D23D3011C966D937D938D939C931F97E1
:1024D000F401E084F18402851385C801B70120E08E
:1024E00030E040E050E00E94692318161CF421E01F
:1024F00030E01CC0C801B70120E030E040E050E00F
:102500000E94C721882319F420E030E00FC0C801E1
:10251000B70120E030E040E050E00E94C72187FD95
:1025200003C022E030E002C02FEF3FEFB90188275F
:1025300077FD8095982F0E94662220E030E040E8E9
:102540005EE30E946D23D40118966D937D938D9365
:102550009C931B97F601E084F18402851385C801E2
:10256000B70120E030E040E050E00E9469231816F7
:102570001CF421E030E01CC0C801B70120E030E0CD
:1025800040E050E00E94C721882319F420E030E0A9
:102590000FC0C801B70120E030E040E050E00E94E9
:1025A000C72187FD03C022E030E002C02FEF3FEFDC
:1025B000B901882777FD8095982F0E94662220E038
:1025C00030E040E85EE30E946D23D60118966D93DB
:1025D0007D938D939C931B97F301E084F184028596
:1025E0001385C801B70120E030E040E050E00E94D0
:1025F000692318161CF421E030E01CC0C801B701A3
:1026000020E030E040E050E00E94C721882319F428
:1026100020E030E00FC0C801B70120E030E040E02A
:1026200050E00E94C72187FD03C022E030E002C0D5
:102630002FEF3FEFB901882777FD8095982F0E94F3
:10264000662220E030E040E85EE30E946D23D30183
:1026500018966D937D938D939C931B9780913F016A
:1026600090914001029709F08CC1F401E484F58453
:1026700006851785C801B70120E030E040E050E052
:102680000E94692318161CF421E030E01CC0C80128
:10269000B70120E030E040E050E00E94C7218823ED
:1026A00019F420E030E00FC0C801B70120E030E0AD
:1026B00040E050E00E94C72187FD03C022E030E0E7
:1026C00002C02FEF3FEFB901882777FD8095982F43
:1026D0000E94662220E030E040E05FE30E946D232C
:1026E000D4011C966D937D938D939C931F97F60157
:1026F000E484F58406851785C801B70120E030E041
:1027000040E050E00E94692318161CF421E030E0FC
:102710001CC0C801B70120E030E040E050E00E945A
:10272000C721882319F420E030E00FC0C801B701A9
:1027300020E030E040E050E00E94C72187FD03C068
:1027400022E030E002C02FEF3FEFB901882777FD8C
:102750008095982F0E94662220E030E040E05FE301
:102760000E946D23D6011C966D937D938D939C934F
:102770001F97F301E484F58406851785C801B70126
:1027800020E030E040E050E00E94692318161CF47D
:1027900021E030E01CC0C801B70120E030E040E09B
:1027A00050E00E94C721882319F420E030E00FC0D8
:1027B000C801B70120E030E040E050E00E94C721AE
:1027C00087FD03C022E030E002C02FEF3FEFB901E8
:1027D000882777FD8095982F0E94662220E030E0C0
:1027E00040E05FE30E946D23D3011C966D937D93BF
:1027F0008D939C931F97F401E084F18402851385E7
:10280000C801B70120E030E040E050E00E946923B9
:1028100018161CF421E030E01CC0C801B70120E00C
:1028200030E040E050E00E94C721882319F420E006
:1028300030E00FC0C801B70120E030E040E050E0D8
:102840000E94C72187FD03C022E030E002C02FEFC5
:102850003FEFB901882777FD8095982F0E94662267
:1028600020E030E040E05FE30E946D23D401189641
:102870006D937D938D939C931B97F601E084F18477
:1028800002851385C801B70120E030E040E050E048
:102890000E94692318161CF421E030E01CC0C80116
:1028A000B70120E030E040E050E00E94C7218823DB
:1028B00019F420E030E00FC0C801B70120E030E09B
:1028C00040E050E00E94C72187FD03C022E030E0D5
:1028D00002C02FEF3FEFB901882777FD8095982F31
:1028E0000E94662220E030E040E05FE30E946D231A
:1028F000D60118966D937D938D939C931B97F3014E
:10290000E084F18402851385C801B70120E030E03E
:1029100040E050E00E94692318161CF421E030E0EA
:102920001CC0C801B70120E030E040E050E00E9448
:10293000C721882319F420E030E00FC0C801B70197
:1029400020E030E040E050E00E94C72187FD03C056
:1029500022E030E002C02FEF3FEFB901882777FD7A
:102960008095982F0E94662220E030E040E05FE3EF
:102970000E946D23D30118966D937D938D939C9344
:102980001B9780913F0190914001039709F068C126
:10299000F401E484F58406851785C801B70120E0B9
:1029A00030E040E050E00E94692318161CF421E05A
:1029B00030E01CC0C801B70120E030E040E050E04A
:1029C0000E94C721882319F420E030E00FC0C8011D
:1029D000B70120E030E040E050E00E94C72187FDD1
:1029E00003C022E030E002C02FEF3FEFB90188279B
:1029F00077FD8095982F0E946622D4011C966D93D6
:102A00007D938D939C931F97F601E484F58406854E
:102A10001785C801B70120E030E040E050E00E9497
:102A2000692318161CF421E030E01CC0C801B7016E
:102A300020E030E040E050E00E94C721882319F4F4
:102A400020E030E00FC0C801B70120E030E040E0F6
:102A500050E00E94C72187FD03C022E030E002C0A1
:102A60002FEF3FEFB901882777FD8095982F0E94BF
:102A70006622D6011C966D937D938D939C931F9730
:102A8000F301E484F58406851785C801B70120E0C9
:102A900030E040E050E00E94692318161CF421E069
:102AA00030E01CC0C801B70120E030E040E050E059
:102AB0000E94C721882319F420E030E00FC0C8012C
:102AC000B70120E030E040E050E00E94C72187FDE0
:102AD00003C022E030E002C02FEF3FEFB9018827AA
:102AE00077FD8095982F0E946622D3011C966D93E6
:102AF0007D938D939C931F97F401E084F18402856C
:102B00001385C801B70120E030E040E050E00E94AA
:102B1000692318161CF421E030E01CC0C801B7017D
:102B200020E030E040E050E00E94C721882319F403
:102B300020E030E00FC0C801B70120E030E040E005
:102B400050E00E94C72187FD03C022E030E002C0B0
:102B50002FEF3FEFB901882777FD8095982F0E94CE
:102B60006622D40118966D937D938D939C931B9749
:102B7000F601E084F18402851385C801B70120E0E5
:102B800030E040E050E00E94692318161CF421E078
:102B900030E01CC0C801B70120E030E040E050E068
:102BA0000E94C721882319F420E030E00FC0C8013B
:102BB000B70120E030E040E050E00E94C72187FDEF
:102BC00003C022E030E002C02FEF3FEFB9018827B9
:102BD00077FD8095982F0E946622D60118966D93F6
:102BE0007D938D939C931B97F301E084F184028580
:102BF0001385C801B70120E030E040E050E00E94BA
:102C0000692318161CF421E030E01CC0C801B7018C
:102C100020E030E040E050E00E94C721882319F412
:102C200020E030E00FC0C801B70120E030E040E014
:102C300050E00E94C72187FD03C022E030E002C0BF
:102C40002FEF3FEFB901882777FD8095982F0E94DD
:102C50006622D30118966D937D938D939C931B9759
:102C6000F301158A148ACE0101960E94BE20CE017E
:102C700046960E94BE20CE018B960E94BE20CE01B9
:102C8000805C9F4F0E94BE200E94E11FC1010197FE
:102C9000F1F78091980190919901449731F08091DA
:102CA000410190914201892B61F450923E01409282
:102CB0003D0121E030E0C751DF4F39832883C95EF1
:102CC000D040109244011092430107C051E0452EBC
:102CD000512C40E5242E43EC342EC751DF4F888120
:102CE0009981C95ED040049711F00C949109CBC82A
:102CF00081E08093D70080EA8093D80082E189BD8B
:102D000009B400FEFDCF80E98093D8001092E00066
:102D10001092AE011092AF018CE08093E2007894A3
:102D200008958091AE0108952FB7F8948091AE0177
:102D3000882369F083E08093E9009BE68091E800B6
:102D400085FD09C082FF03C09093E800F7CF2FBF35
:102D50002FEF3FEF0CC09091F1008091E80085FDCE
:102D600003C08BE68093E8002FBF292F30E0C90114
:102D700008952FB7F8948091AE01882311F490E064
:102D800010C083E08093E9009091F200992349F408
:102D90008091E80082FF05C085FD03C08BE680932B
:102DA000E8002FBF892F08958091AE01882371F02C
:102DB0009FB7F89483E08093E9002BE602C020934C
:102DC000E8008091E80085FDFACF9FBF0895482F65
:102DD0008091AE018823D9F12FB7F89484E08093D5
:102DE000E9008091B101882341F08091E80085FDE0
:102DF00002C02FBF12C01092B1019091E400975E03
:102E000034E08091E80085FD13C02FBF8091E4007D
:102E1000891729F481E08093B1018FEF08958091A3
:102E2000AE018823A1F02FB7F8943093E900E9CFE1
:102E30004093F1008091E80085FD03C08AE3809310
:102E4000E80085E08093B0012FBF80E008958FEF08
:102E50000895282F8091AE01882351F09FB7F894F0
:102E600084E08093E9008091E80085FD03C09FBF66
:102E70008FEF08952093F1008091E80085FD03C055
:102E80008AE38093E80085E08093B0019FBF80E0F3
:102E90000895CF93DF93EC018091AE01882309F46C
:102EA0001CC13FB7F89484E08093E9008091B101A0
:102EB000882309F408C18091E80085FD02C03FBF66
:102EC0000CC11092B101FFC09091E400975E809117
:102ED000E80085FD13C03FBF8091E400891721F40D
:102EE00081E08093B101F9C08091AE01882309F49B
:102EF000F4C03FB7F894B093E900E9CF8091F200B5
:102F0000242F281B822F90E06817790708F4262FBA
:102F1000822F90E08134910508F0C6C08A5A9F4FF5
:102F2000FC01EE0FFF1F0590F491E02D09948991AB
:102F30008093F10089918093F10089918093F10051
:102F400089918093F10089918093F1008991809318
:102F5000F10089918093F10089918093F10089912A
:102F60008093F10089918093F10089918093F10021
:102F700089918093F10089918093F10089918093E8
:102F8000F10089918093F10089918093F1008991FA
:102F90008093F10089918093F10089918093F100F1
:102FA00089918093F10089918093F10089918093B8
:102FB000F10089918093F10089918093F1008991CA
:102FC0008093F10089918093F10089918093F100C1
:102FD00089918093F10089918093F1008991809388
:102FE000F10089918093F10089918093F10089919A
:102FF0008093F10089918093F10089918093F10091
:1030000089918093F10089918093F1008991809357
:10301000F10089918093F10089918093F100899169
:103020008093F10089918093F10089918093F10060
:1030300089918093F10089918093F1008991809327
:10304000F10089918093F10089918093F100899139
:103050008093F10089918093F10089918093F10030
:1030600089918093F10089918093F10089918093F7
:10307000F10089918093F10089918093F100899109
:103080008093F10089918093F10089918093F10000
:1030900089918093F10089918093F10089918093C7
:1030A000F10089918093F10089918093F1008091E2
:1030B000E80085FD02C05093E800621B7109A093EF
:1030C000B0013FBF04C0B4E040E45AE3A5E061159D
:1030D000710509F0F9CE80E001C08FEFDF91CF914B
:1030E00008959FB7F8948091B001882341F084E05F
:1030F0008093E9008AE38093E8001092B0019FBFBB
:1031000008956091890170918A0180918B0190915D
:103110008C01089580918D01089580918E0108950C
:1031200080918F0108958091AF010895282F9FB756
:10313000F8948091AE01882339F082E08093E90011
:103140008091E80085FD03C09FBF8FEF089581EA5D
:103150008093F10080E28093F1001092F1001092D0
:10316000F1001092F1001092F10081E08093F100E3
:103170001092F1002093F1008AE38093E8009FBF52
:1031800080E008951F920F920FB60F9211248F9333
:103190009F938091E1001092E100982F83FF11C06E
:1031A0001092E90081E08093EB001092EC0082E144
:1031B0008093ED0088E08093F0001092AE011092B1
:1031C000AF0192FF13C08091AE01882379F0809106
:1031D000B001882359F081508093B001882331F4E5
:1031E00084E08093E9008AE38093E8009F918F91C7
:1031F0000F900FBE0F901F9018951F920F920FB651
:103200000F9211240F931F932F933F934F935F932C
:103210006F937F938F939F93AF93BF93EF93FF939E
:103220001092E9008091E80083FF3CC14091F100D9
:103230003091F1008091F100682F70E02091F10051
:10324000922F80E0682B792B8091F100A82FB0E0BD
:103250002091F100922F80E0A82BB92B1091F10062
:103260000091F10082EF8093E800363009F05AC0F7
:1032700025E331E0A90145505040F9013797859188
:1032800094918617970701F5FA01859194918A1711
:103290009B07D1F49A012E5F3F4FF901659174911C
:1032A0002E5F3F4FF9014491212F30E0902F80E0B5
:1032B000282B392B2F3F310519F010F02FEF30E07C
:1032C000241758F4422F09C0295F3F4F495F5F4FD1
:1032D000F1E02F353F0789F6E5C05EEF8091E80009
:1032E000282F30E0C90185709070892BB9F322FD39
:1032F000DCC0342F413108F030E1232FCB0106C070
:10330000FC010196E491E093F10021502223C1F7E2
:10331000630F711D431B5093E8004423F9F63031CD
:10332000E9F2C3C0353061F48EEF8093E8008091FC
:10333000E80080FFFCCF862F80688093E300B5C053
:10334000393051F5442309F0ADC06093AE011092BD
:10335000AF011092B0018EEF8093E80088E591E014
:1033600021E02093E900FC010196E491E093EB0059
:10337000EE2369F0AC014F5F5F4FFC0184918093B5
:10338000EC00CA010196FA0134913093ED002F5FF1
:10339000253039F78EE181C0383061F4403809F0CA
:1033A00081C08091E80080FFFCCF8091AE018093C6
:1033B000F10050C0313289F4413A09F073C0809174
:1033C000E80080FFFCCFE9E8F1E081918093F10013
:1033D00081E0E039F807C9F73DC03032A1F441324D
:1033E00009F060C08091E80082FFFCCFE9E8F1E0DD
:1033F0008091F100819381E0E039F807C9F78BEF04
:103400008093E80027C0323251F4413209F04AC0BB
:103410006093AF018091E80080FFFCCF1BC0332395
:10342000E9F48091E80080FFFCCF423811F080E0A1
:103430000DC0A093E9008091EB0090E025E0969507
:1034400087952A95E1F781701092E9008093F10049
:103450001092F1008EEF8093E80027C0313011F018
:10346000333001F54230F1F4672BE1F42A2F2F7746
:10347000822F81508430B0F48EEF8093E800209347
:10348000E900333079F089E18093EB0081E090E04E
:1034900002C0880F991F2A95E2F78093EA001092E4
:1034A000EA0003C081E28093EB00FF91EF91BF91AE
:1034B000AF919F918F917F916F915F914F913F91CC
:1034C0002F911F910F910F900FBE0F901F90189585
:1034D000A1E1B0E0EEE6FAE10C9402243C017F8722
:1034E0006E876A01FC0117821682838181FD03C009
:1034F0006FEF7FEF6FC39E012F5F3F4F398B288B9C
:10350000F3012381EE85FF8523FD859123FF8191C2
:10351000FF87EE87882309F45AC3853251F4EE857C
:10352000FF8523FD859123FF8191FF87EE878532FB
:1035300029F490E0B3010E949C25E2CF982F10E07F
:10354000882499241032B0F49B3269F09C3228F41C
:10355000903251F0933271F40BC09D3239F09033B8
:1035600049F4116028C01260146025C0186023C09F
:10357000106121C017FD2AC0892F80538A3078F44A
:1035800016FF06C0FAE09F9E902C1124980E13C0DF
:103590003AE0839E802C1124880E10620CC09E326B
:1035A00021F416FD14C3106406C09C3611F4106893
:1035B00002C0983659F4EE85FF8523FD959123FFCF
:1035C0009191FF87EE87992309F0BCCF892F85540D
:1035D000833020F4812F8061905E07C0892F85564B
:1035E000833008F09FC1812F8F7E86FD02C076E078
:1035F000972E6FE3F62EF822953619F4F0E4FF2AA1
:1036000007C0963619F420E8F22A02C091109A9465
:10361000F7FE0AC03BE3391518F45CE3B52E02C08F
:10362000B92CB39427E009C047E0491520F4BB2426
:1036300047E0942EF7CF292DBB24C60104969D8721
:103640008C87F6016081718182819381AE014F5F29
:103650005F4F0B2D0E94AE246C010981202E332474
:1036600000FF04C003FD02C01DE209C0F1FE02C05C
:103670001BE205C0F2FC02C010E001C010E2C10173
:103680008C709070892BB9F1112311F483E001C083
:1036900084E0881510F088240AC0881AF3FC07C05B
:1036A00080E290E0B3010E949C258A94C9F711231F
:1036B00029F0812F90E0B3010E949C2523FE03C0D6
:1036C00007EF11E00EC00BEF11E00BC0E114F104A5
:1036D00009F0805290E0B3010E949C250F5F1F4FBC
:1036E00005C0EF2CFF24F0E1EF22FF24F8018491C4
:1036F000882361F714C1F7FE12C0BC0C24FE04C07D
:103700008A81813309F4BA941B141CF0BB24B3944E
:103710002DC0F8E0FB1550F538E0B32E27C0F6FCBD
:1037200025C0892D90E08C159D054CF02CEFC2161C
:103730002FEFD20624F030E8F32A01C09A949920A2
:1037400049F0E2E0F0E0EC0FFD1FE90DF11D808192
:103750008033A1F3F7FE0AC0B92CB394892D90E011
:10376000C816D90614F0992401C09C18F7FC03C0B0
:1037700025E030E009C01C141D041CF021E030E0FD
:1037800003C096012F5F3F4F112311F02F5F3F4F72
:10379000992029F0892D90E00196280F391F882D56
:1037A00090E02817390714F0882401C0821A4F2CA2
:1037B0005524C20189709070892B39F008C080E2CD
:1037C00090E0B3010E949C258A948820C1F71123C0
:1037D00029F0812F90E0B3010E949C2543FE07C091
:1037E00008C080E390E0B3010E949C258A94882061
:1037F000C1F7F7FE46C08601D7FE02C000E010E028
:1038000076010894E11CF11CE01AF10A41E050E055
:103810004C0F5D1FE40EF51E26014B185108892D33
:1038200090E0AA24BB24A81AB90A5FEF0F3F15073E
:1038300029F48EE290E0B3010E949C25C016D106C7
:1038400034F0401651061CF4F701808101C080E37A
:10385000015010400894E11CF11C0A151B052CF0C6
:1038600090E0B3010E949C25E0CF0C151D0539F4B2
:103870009A81963318F4953311F424FE81E390E095
:103880004BC08A81813309F00F7E90E0B3010E9422
:103890009C259920A1F08EE290E0B3010E949C2526
:1038A00012E0E1E0F0E0EC0FFD1FE10FF11D1F5F02
:1038B000808190E0B3010E949C259A9491F744FC8A
:1038C00003C085E690E002C085E490E0B3010E9469
:1038D0009C25D7FC05C0C114D10441F404FF06C0E7
:1038E000D094C194D108D3948DE201C08BE290E0D2
:1038F000B3010E949C2580E305C08F5F26EF3FEF58
:10390000C20ED31E3AE0C316D104BCF790E0B30157
:103910000E949C25C601C096B3010E949C25CC84C0
:10392000DD8452C1933631F0933799F0933509F025
:1039300059C023C0F601808189835E010894A11CCF
:10394000B11C22E030E0C20ED31E21E0E22EF12CA9
:1039500012C0F601A080B18016FD03C06FEF7FEFAB
:1039600002C0692D70E022E030E0C20ED31EC50116
:103970000E9491257C011F7713C0F601A080B180C1
:1039800016FD03C06FEF7FEF02C0692D70E022E0EB
:1039900030E0C20ED31EC5010E9486257C0110684E
:1039A00013FF07C01BC080E290E0B3010E949C257A
:1039B0008A94882D90E0E816F906A8F30FC0F50167
:1039C00017FD859117FF81915F0190E0B3010E947F
:1039D0009C2581108A940894E108F108E114F1040F
:1039E00071F7F2C0943611F0993689F517FF08C0C7
:1039F000F601208131814281538184E090E00AC048
:103A0000F601808191819C01442737FD4095542F18
:103A100082E090E0C80ED91E9FE6F92EF12257FFF2
:103A200009C050954095309521953F4F4F4F5F4FBE
:103A300090E8F92ACA01B901AE014F5F5F4F2AE051
:103A400030E00E94EC25E82EE889EE1A41C0953757
:103A500021F41F7E2AE030E01CC0197F9F3661F000
:103A6000903720F4983509F0B2C00FC0903739F084
:103A7000983709F0ACC004C028E030E00AC01061FB
:103A800014FD146020E130E004C014FD166020E154
:103A900032E017FF08C0F601608171818281938155
:103AA00044E050E008C0F60180819181BC0180E0D3
:103AB00090E042E050E0C40ED51EAE014F5F5F4F74
:103AC0000E94EC25E82E5889E51A8FE7F82EF1229E
:103AD000F6FE0BC08EEFF822E91438F4F4FE07C0AE
:103AE000F2FC05C09FEEF92202C01E2D01C0192D67
:103AF000F4FE0DC0FE01EE0DF11D8081803319F43E
:103B0000E9EEFE2208C01F5FF2FE05C003C08F2D44
:103B1000867809F01F5F0F2DF3FC14C0F0FE0FC074
:103B2000181510F09E2C0BC09E2C980C911A182D75
:103B300006C080E290E0B3010E949C251F5F18152B
:103B4000C0F304C0181510F4811A01C0882404FFC2
:103B50000FC080E390E0B3010E949C2502FF1DC0CE
:103B600001FD03C088E790E00EC088E590E00BC03F
:103B7000802F867891F001FF02C08BE201C080E2C5
:103B8000F7FC8DE290E0B3010E949C2506C080E323
:103B900090E0B3010E949C259A94E914C0F3EA9442
:103BA000E1E0F0E0EC0FFD1FEE0DF11D808190E0F3
:103BB000B3010E949C25EE2091F706C080E290E0C0
:103BC000B3010E949C258A948820C1F799CCF30107
:103BD00066817781CB016196E2E10C941E24E2EBD1
:103BE000F1E0119283E0EA3AF807D9F708958435B5
:103BF00080F5603370F5262F2695269526956770FB
:103C000090E0442399F0E4E52E9FF0011124E80FA1
:103C1000F91FEE54FE4F81E090E002C0880F991F1B
:103C20006A95E2F72081282B20830895E4E52E9FF2
:103C3000F0011124E80FF91FEE54FE4F81E090E0EF
:103C400002C0880F991F6A95E2F78095208128238A
:103C5000208308952F923F924F925F926F927F92AE
:103C60008F929F92AF92BF92CF92DF92EF92FF928C
:103C70000F931F93DF93CF93CDB7DEB72D970FB67A
:103C8000F894DEBF0FBECDBFD82EC62E142F022F44
:103C90008417F9F4A62EBB24E22EFF240EC08D2D2E
:103CA0006A2D41E00E94F71DC01620F40894A11C63
:103CB000B11C03C00894A108B108C01628F4EA1486
:103CC000FB040CF4FEC0EBCFAE14BF040CF4F9C03F
:103CD000E6CF282F30E06017F9F4C9015C01E42E2B
:103CE000FF240EC08A2D6C2D41E00E94F71DD116D5
:103CF00020F40894A11CB11C03C00894A108B108C9
:103D0000D11628F4EA14FB040CF4DBC0EBCFAE149C
:103D1000BF040CF4D6C0E6CF842F90E09A83898349
:103D2000C9015C0169817A81681B790B882777FD5D
:103D30008095982F0E9466226F83788789879A875B
:103D4000202E33244C2C5524B10164197509882781
:103D500077FD8095982F0E9466223B014C012F81B0
:103D6000388549855A850E94CB216B837C838D835E
:103D70009E8320E030E040E050E00E94692387FF0E
:103D80000DC0C401B30190582F81388549855A85EB
:103D90000E94CB216B837C838D839E830F2EF0E06A
:103DA000CF2EF0E0DF2EF0E0EF2EF0E0FF2EF02D32
:103DB00070C0AB868A2D642D41E00E94F71DC701BB
:103DC000B6012B813C814D815E810E94502131C022
:103DD0008B85642D41E00E94F71D1D861C86C40161
:103DE000B30120E030E040E050E00E946923181663
:103DF00024F4E1E0F0E0FD87EC8700E010E0C4018E
:103E0000B30120E030E040E050E00E94C721882369
:103E100014F401E010E08C859D85801B910B480E09
:103E2000591EC701B60120E030E040E85FE30E9480
:103E30004F216B017C0120E030E040E05FE30E9415
:103E4000692388239CF0C401B30120E030E040E006
:103E500050E00E94692318162CF4241435040CF049
:103E6000B7CF04C0421453040CF0B2CF6F817885F1
:103E700089859A8520E030E040E050E00E94692387
:103E8000181624F40894A11CB11C03C00894A108BE
:103E9000B1086F81788589859A8520E030E040E01F
:103EA00050E00E946923181634F4E981FA81EA157A
:103EB000FB053CF07ECF89819A81A816B9060CF0EB
:103EC00078CF2D960FB6F894DEBF0FBECDBFCF9141
:103ED000DF911F910F91FF90EF90DF90CF90BF90F7
:103EE000AF909F908F907F906F905F904F903F909A
:103EF0002F9008958F929F92AF92BF92CF92DF92B0
:103F0000EF92FF920F931F93CF93DF93D82EC62E7D
:103F100085E0489FA00111248A01015A1E4F91E0BB
:103F2000892E912C84E6A82E81E0B82EA40EB51E11
:103F30001EC06C2D6C0FA4010C2E02C0440F551F27
:103F40000A94E2F74E215F210C2E02C05595479549
:103F50000A94E2F78D2D0E94F71D2196C830D105F5
:103F600041F70F5F1F4FD3940A151B0539F0C0E0CE
:103F7000D0E0F8018491E82EFF24DBCFDF91CF91D0
:103F80001F910F91FF90EF90DF90CF90BF90AF9077
:103F90009F908F9008950F931F93CF93DF93182FC7
:103FA000062FEA0106C0812F602F0E947A1F2196FA
:103FB0001B5F48814423B9F7DF91CF911F910F9187
:103FC0000895CF93DF9380E060E00E948920C2EBE8
:103FD000D1E081E069910E94F41F83E0CA3AD807DA
:103FE000C1F7DF91CF91089595B18295880F807EBA
:103FF0009F7D982B95B95F9827E030E070E08F980F
:10400000CB01022E02C0959587950A94E2F780FFB6
:1040100002C02E9A01C02E988F9A215030408FEF07
:104020002F3F380761F75F9A08951F93182F579A0B
:10403000249A259A269A879A2C985F9A2C9A80E03F
:1040400061E20E94F41F106880E0612F0E94F41F5B
:1040500080E064E00E94F41F80E063E10E94F41FAE
:1040600080E06CE00E94F41F80E060E20E94F41F98
:1040700080E06CE00E94F41F80E060E40E94F41F86
:1040800080E060E80E94F41F1F910895CF93DF93B2
:10409000C0E0D0E081E060E00E94F41F219681E062
:1040A000C83FD807B9F7DF91CF9108950F931F93B9
:1040B000CF93DF93082F81E060E00E94F41F85E03A
:1040C000089F80011124E801C15CDC4F0B591040AE
:1040D00001521C4FFE01649181E00E94F41F219661
:1040E000C017D107B9F781E060E00E94F41FDF91AB
:1040F000CF911F910F910895CF93DF93EC0103C0EF
:104100000E945620219688818823D1F7DF91CF9194
:1041100008951F93182F606480E00E94F41F1068B8
:1041200080E0612F0E94F41F1F910895AF92BF920B
:10413000CF92EF920F931F93FC01408351836283D0
:1041400073830483158326833783E08AC18AB48A04
:10415000A38A81E0828B80E090E0A0E0B0E08087DD
:104160009187A287B38784879587A687B7871F9192
:104170000F91EF90CF90BF90AF9008953F924F92E4
:104180005F926F927F928F929F92AF92BF92CF92E7
:10419000DF92EF92FF920F931F93CF93DF93EC0187
:1041A0008A89882309F469C0688970E0882777FDC7
:1041B0008095982F0E94662220E030E040E05EE388
:1041C0000E946D230E94B4210E943822362E88243A
:1041D00047C0092D10E0B801882777FD8095982FFA
:1041E0000E94662220E030E040E05EE30E946D2302
:1041F0000E94A1226B017C01688179818A819B8167
:104200000E943822A92CA60E6C817D818E819F810F
:104210000E943822B82CB60EC301B2010E94662259
:10422000A70196010E9450210E943322EB89FC894C
:10423000E60FF71F408150E0009510950770107051
:1042400002C0559547950A95E2F741708A2D6B2D6E
:104250000E94F71D93948889981608F4BACF839426
:104260008989881650F4839CC001112499242C015B
:10427000662457FC6094762CEECFDF91CF911F918E
:104280000F91FF90EF90DF90CF90BF90AF909F90F5
:104290008F907F906F905F904F903F90089550580F
:1042A000BB27AA270ED0C4C1B5D130F0BAD120F0B7
:1042B00031F49F3F11F41EF4AAC10EF4E095E7FB20
:1042C00077C1E92FC6D180F3BA1762077307840755
:1042D000950718F071F49EF5F5C10EF4E0950B2EDC
:1042E000BA2FA02D0B01B90190010C01CA01A00148
:1042F0001124FF27591B99F0593F50F4503E68F1A3
:104300001A16F040A22F232F342F4427585FF3CFE3
:10431000469537952795A795F0405395C9F77EF4B4
:104320001F16BA0B620B730B840BBAF09150A1F0FD
:10433000FF0FBB1F661F771F881FC2F70EC0BA0F83
:10434000621F731F841F48F4879577956795B7950B
:10435000F7959E3F08F0B3CF9395880F08F0992703
:10436000EE0F97958795089596D180F09F3740F48A
:1043700091110EF4A8C160E070E080E89FE3089519
:1043800026F01B16611D711D811D18C132C1ECD0B4
:1043900008F481E008950CD04BC143D140F03AD1EC
:1043A00030F021F45F3F19F003C151118CC12FC1CE
:1043B00050D198F39923C9F35523B1F3951B550BAD
:1043C000BB27AA2762177307840738F09F5F5F4FE8
:1043D000220F331F441FAA1FA9F333D00E2E3AF029
:1043E000E0E830D091505040E695001CCAF729D043
:1043F000FE2F27D0660F771F881FBB1F2617370792
:104400004807AB07B0E809F0BB0B802DBF01FF27C1
:1044100093585F4F2AF09E3F510568F0C9C053C1C1
:104420005F3FECF3983EDCF3869577956795B795FB
:10443000F7959F5FC9F7880F911D9695879597F916
:104440000895E1E0660F771F881FBB1F621773078F
:104450008407BA0720F0621B730B840BBA0BEE1FA4
:1044600088F7E095089504D06894B1112CC108959F
:10447000F8D088F09F5790F0B92F9927B751A0F046
:10448000D1F0660F771F881F991F1AF0BA95C9F7E8
:1044900012C0B13081F016D1B1E0089513C1672F79
:1044A000782F8827B85F39F0B93FCCF38695779598
:1044B0006795B395D9F73EF4909580957095619581
:1044C0007F4F8F4F9F4F0895E89409C097FB3EF4AC
:1044D00090958095709561957F4F8F4F9F4F992351
:1044E000A9F0F92F96E9BB279395F69587957795CF
:1044F0006795B795F111F8CFFAF4BB0F11F460FF8F
:104500001BC06F5F7F4F8F4F9F4F16C0882311F0E6
:1045100096E911C0772321F09EE8872F762F05C0FA
:10452000662371F096E8862F70E060E02AF09A9595
:10453000660F771F881FDAF7880F9695879597F98A
:104540000895A9D080F09F3740F491110EF0BBC0C0
:1045500060E070E080E89FEB089526F41B16611D73
:10456000711D811D2BC045C0990F0008550FAA0B66
:10457000E0E8FEEF16161706E807F907C0F0121676
:104580001306E407F50798F0621B730B840B950B79
:1045900039F40A2661F0232B242B252B21F40895CE
:1045A0000A2609F4A140A6958FEF811D811D08956B
:1045B00097F99F6780E870E060E00895882371F4C0
:1045C000772321F09850872B762F07C0662311F4AC
:1045D00099270DC09051862B70E060E02AF09A95E3
:1045E000660F771F881FDAF7880F9695879597F9DA
:1045F00008959F3F31F0915020F487957795679506
:10460000B795880F911D9695879597F908959FEF17
:1046100080EC089500240A94161617061806090659
:10462000089500240A941216130614060506089528
:10463000092E0394000C11F4882352F0BB0F40F4B0
:10464000BF2B11F460FF04C06F5F7F4F8F4F9F4FF0
:10465000089557FD9058440F551F59F05F3F71F072
:104660004795880F97FB991F61F09F3F79F08795D9
:104670000895121613061406551FF2CF4695F1DF62
:1046800008C0161617061806991FF1CF86957105F2
:10469000610508940895E5DFA0F0BEE7B91788F436
:1046A000BB279F3860F41616B11D672F782F882717
:1046B000985FF7CF869577956795B11D9395963955
:1046C000C8F30895E894BB2766277727CB0197F9AD
:1046D00008954ADF08F48FEF08950BD0A9CF9ADF31
:1046E00028F09FDF18F0952309F062CF90CF1124B6
:1046F000EACFAFDFA0F3959FD1F3950F50E0551FA0
:10470000629FF001729FBB27F00DB11D639FAA2726
:10471000F00DB11DAA1F649F6627B00DA11D661F75
:10472000829F2227B00DA11D621F739FB00DA11D96
:10473000621F839FA00D611D221F749F3327A00D50
:10474000611D231F849F600D211D822F762F6A2FEC
:1047500011249F5750408AF0E1F088234AF0EE0F71
:10476000FF1FBB1F661F771F881F91505040A9F77E
:104770009E3F510570F01CCFA6CF5F3FECF3983EF3
:10478000DCF3869577956795B795F795E7959F5FE5
:10479000C1F7FE2B880F911D9695879597F908957F
:1047A000629FD001739FF001829FE00DF11D649F15
:1047B000E00DF11D929FF00D839FF00D749FF00DA1
:1047C000659FF00D9927729FB00DE11DF91F639F42
:1047D000B00DE11DF91FBD01CF011124089597FB14
:1047E000092E07260AD077FD04D043D006D000203A
:1047F0001AF4709561957F4F0895F6F7909581951D
:104800009F4F08952F923F924F925F926F927F92A7
:104810008F929F92AF92BF92CF92DF92EF92FF92D0
:104820000F931F93CF93DF93CDB7DEB7CA1BDB0B7C
:104830000FB6F894DEBF0FBECDBF09942A88398821
:1048400048885F846E847D848C849B84AA84B98428
:10485000C884DF80EE80FD800C811B81AA81B98134
:10486000CE0FD11D0FB6F894DEBF0FBECDBFED0148
:104870000895AA1BBB1B51E107C0AA1FBB1FA617A7
:10488000B70710F0A61BB70B881F991F5A95A9F7F9
:1048900080959095BC01CD010895A0E0B0E0E3E5DE
:1048A000F4E20C940A24EC01A880B980CA80DB8071
:1048B000A114B104C104D10441F484E2A82E89ED0D
:1048C000B82E8BE5C82E87E0D82EC601B5012DE1A4
:1048D00033EF41E050E00E944A2627EA31E440E00D
:1048E00050E00E94D0237B018C01C601B5012DE16F
:1048F00033EF41E050E00E944A26CA01B9012CEE94
:1049000034EF4FEF5FEF0E94D0236E0D7F1D801FAD
:10491000911F97FF04C061507040804090486883A9
:1049200079838A839B839B013F77C901CDB7DEB72B
:10493000EAE00C9426240E944D24089580E991E039
:104940000E944D240895A0E0B0E0809390019093E0
:104950009101A0939201B09393010895283008F03B
:1049600027E03327DA01990F311D87FD916000960A
:104970006105710539F432602E5F3D9330E32A956D
:10498000E1F708959F3F30F080387105610509F027
:104990003C5F3C5F3D93913008F08068911DDF9350
:1049A000CF931F930F93FF92EF92192F987F9695B5
:1049B000E92F96959695E90FFF27E75EF94F99271E
:1049C0003327EE24FF24A701E701059008940794FC
:1049D00028F4360FE71EF81E491F511D660F771F7A
:1049E000881F991F0694A1F70590079428F4E70EF5
:1049F000F81E491F561FC11D770F881F991F661F7C
:104A00000694A1F70590079428F4F80E491F561F45
:104A1000C71FD11D880F991F661F771F0694A1F726
:104A20000590079420F4490F561FC71FD81F990FF0
:104A3000661F771F881F0694A9F784911095177039
:104A400041F0D695C79557954795F794E7941A95F1
:104A5000C1F7EFEBF5E068941590159135916591EC
:104A6000959105907FE27395E118F10A430B560B7F
:104A7000C90BD009C0F7E10CF11E431F561FC91F17
:104A8000D01D7EF4703311F48A95E6CFE89401507E
:104A900030F0080F0AF40027021708F4202F23959E
:104AA000022F7A3328F079E37D932A95E9F710C035
:104AB0007D932A9589F6069497956795379517956E
:104AC0001794E118F10A430B560BC90BD00998F063
:104AD00023957E9173957A3308F070E37C932013CD
:104AE000B8F77E9170617D9330F0839571E37D938B
:104AF00070E32A95E1F71124EF90FF900F911F9139
:104B0000CF91DF91992787FD90950895FC0105903D
:104B1000615070400110D8F7809590958E0F9F1FBF
:104B20000895FC016150704001900110D8F7809504
:104B300090958E0F9F1F08950F931F93CF93DF9330
:104B40008C01EB018B8181FF1BC082FF0DC02E8188
:104B50003F818C819D812817390764F4E881F981B0
:104B60000193F983E88306C0E885F985802F0995CC
:104B7000892B31F48E819F8101969F838E8302C0A1
:104B80000FEF1FEFC801DF91CF911F910F91089593
:104B9000AEE0B0E0EEECF5E20C9410240D891E8935
:104BA00086E08C831A8309838FEF9FE79E838D8332
:104BB0009E01275E3F4FCE0101966F89788DA90136
:104BC0000E94681A2F813885020F131FF801108286
:104BD0002E96E4E00C942C24FA01AA27283051F1F7
:104BE000203181F1E8946F936E7F6E5F7F4F8F4F1E
:104BF0009F4FAF4FB1E03ED0B4E03CD0670F781F7D
:104C0000891F9A1FA11D680F791F8A1F911DA11D61
:104C10006A0F711D811D911DA11D20D009F468949A
:104C20003F912AE0269F11243019305D3193DEF642
:104C3000CF010895462F4770405D4193B3E00FD0F8
:104C4000C9F7F6CF462F4F70405D4A3318F0495DE3
:104C500031FD4052419302D0A9F7EACFB4E0A695C6
:104C60009795879577956795BA95C9F700976105E8
:104C7000710508959B01AC010A2E0694579547953E
:104C800037952795BA95C9F7620F731F841F951F33
:104C9000A01D089597FB092E05260ED057FD04D0C0
:104CA00014D00AD0001C38F45095409530952195C9
:104CB0003F4F4F4F5F4F0895F6F790958095709551
:104CC00061957F4F8F4F9F4F0895A1E21A2EAA1B27
:104CD000BB1BFD010DC0AA1FBB1FEE1FFF1FA217AC
:104CE000B307E407F50720F0A21BB30BE40BF50BA9
:104CF000661F771F881F991F1A9469F76095709532
:104D0000809590959B01AC01BD01CF010895F89469
:024D1000FFCFD3
:104D12004A616D657320466C616E6E657279006ED4
:104D220038333236363331004C6576656C3A20259D
:104D320075004C3A20257500533A20257500506CB9
:104D42006561736520436F6E6E65637400010001D7
:104D5200000300010007E0181820044002581A98C6
:104D6200198001800100001042FF81A581A599816F
:104D7200FF0000000000000000FF81A5818199A5CD
:104D8200FF0000000000000000FFA5A98195A98195
:104D9200FF000000000000000000E1000000000829
:044DA200010000000C
:00000001FF
